{
  "contractName": "ProductManagement",
  "abi": [
    {
      "inputs": [
        {
          "internalType": "uint256",
          "name": "",
          "type": "uint256"
        }
      ],
      "name": "DIS",
      "outputs": [
        {
          "internalType": "address",
          "name": "addr",
          "type": "address"
        },
        {
          "internalType": "uint256",
          "name": "id",
          "type": "uint256"
        },
        {
          "internalType": "string",
          "name": "name",
          "type": "string"
        },
        {
          "internalType": "string",
          "name": "place",
          "type": "string"
        }
      ],
      "stateMutability": "view",
      "type": "function"
    },
    {
      "inputs": [
        {
          "internalType": "uint256",
          "name": "",
          "type": "uint256"
        }
      ],
      "name": "MAN",
      "outputs": [
        {
          "internalType": "address",
          "name": "addr",
          "type": "address"
        },
        {
          "internalType": "uint256",
          "name": "id",
          "type": "uint256"
        },
        {
          "internalType": "string",
          "name": "name",
          "type": "string"
        },
        {
          "internalType": "string",
          "name": "place",
          "type": "string"
        }
      ],
      "stateMutability": "view",
      "type": "function"
    },
    {
      "inputs": [],
      "name": "Owner",
      "outputs": [
        {
          "internalType": "address",
          "name": "",
          "type": "address"
        }
      ],
      "stateMutability": "view",
      "type": "function"
    },
    {
      "inputs": [
        {
          "internalType": "uint256",
          "name": "",
          "type": "uint256"
        }
      ],
      "name": "ProductStock",
      "outputs": [
        {
          "internalType": "uint256",
          "name": "id",
          "type": "uint256"
        },
        {
          "internalType": "string",
          "name": "name",
          "type": "string"
        },
        {
          "internalType": "string",
          "name": "description",
          "type": "string"
        },
        {
          "internalType": "uint256",
          "name": "price",
          "type": "uint256"
        },
        {
          "internalType": "string",
          "name": "imageHash",
          "type": "string"
        },
        {
          "internalType": "uint256",
          "name": "MANid",
          "type": "uint256"
        },
        {
          "internalType": "uint256",
          "name": "DISid",
          "type": "uint256"
        },
        {
          "internalType": "uint256",
          "name": "RETid",
          "type": "uint256"
        },
        {
          "internalType": "enum ProductManagement.STAGE",
          "name": "stage",
          "type": "uint8"
        }
      ],
      "stateMutability": "view",
      "type": "function"
    },
    {
      "inputs": [
        {
          "internalType": "uint256",
          "name": "",
          "type": "uint256"
        },
        {
          "internalType": "uint256",
          "name": "",
          "type": "uint256"
        }
      ],
      "name": "Products",
      "outputs": [
        {
          "internalType": "uint256",
          "name": "",
          "type": "uint256"
        }
      ],
      "stateMutability": "view",
      "type": "function"
    },
    {
      "inputs": [
        {
          "internalType": "uint256",
          "name": "",
          "type": "uint256"
        }
      ],
      "name": "RET",
      "outputs": [
        {
          "internalType": "address",
          "name": "addr",
          "type": "address"
        },
        {
          "internalType": "uint256",
          "name": "id",
          "type": "uint256"
        },
        {
          "internalType": "string",
          "name": "name",
          "type": "string"
        },
        {
          "internalType": "string",
          "name": "place",
          "type": "string"
        }
      ],
      "stateMutability": "view",
      "type": "function"
    },
    {
      "inputs": [
        {
          "internalType": "address",
          "name": "_address",
          "type": "address"
        },
        {
          "internalType": "string",
          "name": "_name",
          "type": "string"
        },
        {
          "internalType": "string",
          "name": "_place",
          "type": "string"
        }
      ],
      "name": "addDistributor",
      "outputs": [],
      "stateMutability": "nonpayable",
      "type": "function"
    },
    {
      "inputs": [
        {
          "internalType": "address",
          "name": "_address",
          "type": "address"
        },
        {
          "internalType": "string",
          "name": "_name",
          "type": "string"
        },
        {
          "internalType": "string",
          "name": "_place",
          "type": "string"
        }
      ],
      "name": "addManufacturer",
      "outputs": [],
      "stateMutability": "nonpayable",
      "type": "function"
    },
    {
      "inputs": [
        {
          "internalType": "address",
          "name": "_address",
          "type": "address"
        },
        {
          "internalType": "string",
          "name": "_name",
          "type": "string"
        },
        {
          "internalType": "string",
          "name": "_place",
          "type": "string"
        }
      ],
      "name": "addRetailer",
      "outputs": [],
      "stateMutability": "nonpayable",
      "type": "function"
    },
    {
      "inputs": [],
      "name": "disCtr",
      "outputs": [
        {
          "internalType": "uint256",
          "name": "",
          "type": "uint256"
        }
      ],
      "stateMutability": "view",
      "type": "function"
    },
    {
      "inputs": [],
      "name": "manCtr",
      "outputs": [
        {
          "internalType": "uint256",
          "name": "",
          "type": "uint256"
        }
      ],
      "stateMutability": "view",
      "type": "function"
    },
    {
      "inputs": [],
      "name": "productCtr",
      "outputs": [
        {
          "internalType": "uint256",
          "name": "",
          "type": "uint256"
        }
      ],
      "stateMutability": "view",
      "type": "function"
    },
    {
      "inputs": [],
      "name": "retCtr",
      "outputs": [
        {
          "internalType": "uint256",
          "name": "",
          "type": "uint256"
        }
      ],
      "stateMutability": "view",
      "type": "function"
    },
    {
      "inputs": [
        {
          "internalType": "string",
          "name": "_name",
          "type": "string"
        },
        {
          "internalType": "string",
          "name": "_description",
          "type": "string"
        },
        {
          "internalType": "uint256",
          "name": "_price",
          "type": "uint256"
        },
        {
          "internalType": "string",
          "name": "_imageHash",
          "type": "string"
        }
      ],
      "name": "addProduct",
      "outputs": [],
      "stateMutability": "nonpayable",
      "type": "function"
    }
  ],
  "bytecode": "0x608060405234801561001057600080fd5b50336000806101000a81548173ffffffffffffffffffffffffffffffffffffffff021916908373ffffffffffffffffffffffffffffffffffffffff1602179055506116a2806100606000396000f3fe608060405234801561001057600080fd5b50600436106100ea5760003560e01c80636a992c9f1161008c578063aaea34aa11610066578063aaea34aa1461026b578063b4a99a4e14610289578063cc403069146102a7578063f800d332146102da576100ea565b80636a992c9f146102155780637e43d94d14610231578063857ddb041461024f576100ea565b8063438e9c4d116100c8578063438e9c4d1461015c5780635573d8b21461017a57806359bf286f146101b257806362982bf0146101e5576100ea565b80632a4af440146100ef5780632b0187ac1461010b5780632bdb2e6b1461013e575b600080fd5b61010960048036038101906101049190611164565b6102f6565b005b61012560048036038101906101209190611225565b610447565b60405161013594939291906112f8565b60405180910390f35b6101466105a7565b604051610153919061134b565b60405180910390f35b6101646105ad565b604051610171919061134b565b60405180910390f35b610194600480360381019061018f9190611225565b6105b3565b6040516101a9999897969594939291906113dd565b60405180910390f35b6101cc60048036038101906101c79190611225565b6107a6565b6040516101dc94939291906112f8565b60405180910390f35b6101ff60048036038101906101fa919061147f565b610906565b60405161020c919061134b565b60405180910390f35b61022f600480360381019061022a9190611164565b610937565b005b610239610a88565b604051610246919061134b565b60405180910390f35b61026960048036038101906102649190611164565b610a8e565b005b610273610bdf565b604051610280919061134b565b60405180910390f35b610291610be5565b60405161029e91906114bf565b60405180910390f35b6102c160048036038101906102bc9190611225565b610c09565b6040516102d194939291906112f8565b60405180910390f35b6102f460048036038101906102ef91906114da565b610d69565b005b60008054906101000a900473ffffffffffffffffffffffffffffffffffffffff1673ffffffffffffffffffffffffffffffffffffffff163373ffffffffffffffffffffffffffffffffffffffff161461034e57600080fd5b60026000815480929190610361906115c4565b919050555060405180608001604052808473ffffffffffffffffffffffffffffffffffffffff16815260200160025481526020018381526020018281525060056000600254815260200190815260200160002060008201518160000160006101000a81548173ffffffffffffffffffffffffffffffffffffffff021916908373ffffffffffffffffffffffffffffffffffffffff160217905550602082015181600101556040820151816002019080519060200190610421929190610f09565b50606082015181600301908051906020019061043e929190610f09565b50905050505050565b60056020528060005260406000206000915090508060000160009054906101000a900473ffffffffffffffffffffffffffffffffffffffff16908060010154908060020180546104969061163b565b80601f01602080910402602001604051908101604052809291908181526020018280546104c29061163b565b801561050f5780601f106104e45761010080835404028352916020019161050f565b820191906000526020600020905b8154815290600101906020018083116104f257829003601f168201915b5050505050908060030180546105249061163b565b80601f01602080910402602001604051908101604052809291908181526020018280546105509061163b565b801561059d5780601f106105725761010080835404028352916020019161059d565b820191906000526020600020905b81548152906001019060200180831161058057829003601f168201915b5050505050905084565b60025481565b60015481565b60086020528060005260406000206000915090508060000154908060010180546105dc9061163b565b80601f01602080910402602001604051908101604052809291908181526020018280546106089061163b565b80156106555780601f1061062a57610100808354040283529160200191610655565b820191906000526020600020905b81548152906001019060200180831161063857829003601f168201915b50505050509080600201805461066a9061163b565b80601f01602080910402602001604051908101604052809291908181526020018280546106969061163b565b80156106e35780601f106106b8576101008083540402835291602001916106e3565b820191906000526020600020905b8154815290600101906020018083116106c657829003601f168201915b5050505050908060030154908060040180546106fe9061163b565b80601f016020809104026020016040519081016040528092919081815260200182805461072a9061163b565b80156107775780601f1061074c57610100808354040283529160200191610777565b820191906000526020600020905b81548152906001019060200180831161075a57829003601f168201915b5050505050908060050154908060060154908060070154908060080160009054906101000a900460ff16905089565b60066020528060005260406000206000915090508060000160009054906101000a900473ffffffffffffffffffffffffffffffffffffffff16908060010154908060020180546107f59061163b565b80601f01602080910402602001604051908101604052809291908181526020018280546108219061163b565b801561086e5780601f106108435761010080835404028352916020019161086e565b820191906000526020600020905b81548152906001019060200180831161085157829003601f168201915b5050505050908060030180546108839061163b565b80601f01602080910402602001604051908101604052809291908181526020018280546108af9061163b565b80156108fc5780601f106108d1576101008083540402835291602001916108fc565b820191906000526020600020905b8154815290600101906020018083116108df57829003601f168201915b5050505050905084565b6009602052816000526040600020818154811061092257600080fd5b90600052602060002001600091509150505481565b60008054906101000a900473ffffffffffffffffffffffffffffffffffffffff1673ffffffffffffffffffffffffffffffffffffffff163373ffffffffffffffffffffffffffffffffffffffff161461098f57600080fd5b600160008154809291906109a2906115c4565b919050555060405180608001604052808473ffffffffffffffffffffffffffffffffffffffff16815260200160015481526020018381526020018281525060046000600154815260200190815260200160002060008201518160000160006101000a81548173ffffffffffffffffffffffffffffffffffffffff021916908373ffffffffffffffffffffffffffffffffffffffff160217905550602082015181600101556040820151816002019080519060200190610a62929190610f09565b506060820151816003019080519060200190610a7f929190610f09565b50905050505050565b60035481565b60008054906101000a900473ffffffffffffffffffffffffffffffffffffffff1673ffffffffffffffffffffffffffffffffffffffff163373ffffffffffffffffffffffffffffffffffffffff1614610ae657600080fd5b60036000815480929190610af9906115c4565b919050555060405180608001604052808473ffffffffffffffffffffffffffffffffffffffff16815260200160035481526020018381526020018281525060066000600354815260200190815260200160002060008201518160000160006101000a81548173ffffffffffffffffffffffffffffffffffffffff021916908373ffffffffffffffffffffffffffffffffffffffff160217905550602082015181600101556040820151816002019080519060200190610bb9929190610f09565b506060820151816003019080519060200190610bd6929190610f09565b50905050505050565b60075481565b60008054906101000a900473ffffffffffffffffffffffffffffffffffffffff1681565b60046020528060005260406000206000915090508060000160009054906101000a900473ffffffffffffffffffffffffffffffffffffffff1690806001015490806002018054610c589061163b565b80601f0160208091040260200160405190810160405280929190818152602001828054610c849061163b565b8015610cd15780601f10610ca657610100808354040283529160200191610cd1565b820191906000526020600020905b815481529060010190602001808311610cb457829003601f168201915b505050505090806003018054610ce69061163b565b80601f0160208091040260200160405190810160405280929190818152602001828054610d129061163b565b8015610d5f5780601f10610d3457610100808354040283529160200191610d5f565b820191906000526020600020905b815481529060010190602001808311610d4257829003601f168201915b5050505050905084565b60008054906101000a900473ffffffffffffffffffffffffffffffffffffffff1673ffffffffffffffffffffffffffffffffffffffff163373ffffffffffffffffffffffffffffffffffffffff1614610dc157600080fd5b60076000815480929190610dd4906115c4565b9190505550604051806101200160405280600754815260200185815260200184815260200183815260200182815260200160008152602001600081526020016000815260200160006004811115610e2e57610e2d611366565b5b815250600860006007548152602001908152602001600020600082015181600001556020820151816001019080519060200190610e6c929190610f09565b506040820151816002019080519060200190610e89929190610f09565b50606082015181600301556080820151816004019080519060200190610eb0929190610f09565b5060a0820151816005015560c0820151816006015560e082015181600701556101008201518160080160006101000a81548160ff02191690836004811115610efb57610efa611366565b5b021790555090505050505050565b828054610f159061163b565b90600052602060002090601f016020900481019282610f375760008555610f7e565b82601f10610f5057805160ff1916838001178555610f7e565b82800160010185558215610f7e579182015b82811115610f7d578251825591602001919060010190610f62565b5b509050610f8b9190610f8f565b5090565b5b80821115610fa8576000816000905550600101610f90565b5090565b6000604051905090565b600080fd5b600080fd5b600073ffffffffffffffffffffffffffffffffffffffff82169050919050565b6000610feb82610fc0565b9050919050565b610ffb81610fe0565b811461100657600080fd5b50565b60008135905061101881610ff2565b92915050565b600080fd5b600080fd5b6000601f19601f8301169050919050565b7f4e487b7100000000000000000000000000000000000000000000000000000000600052604160045260246000fd5b61107182611028565b810181811067ffffffffffffffff821117156110905761108f611039565b5b80604052505050565b60006110a3610fac565b90506110af8282611068565b919050565b600067ffffffffffffffff8211156110cf576110ce611039565b5b6110d882611028565b9050602081019050919050565b82818337600083830152505050565b6000611107611102846110b4565b611099565b90508281526020810184848401111561112357611122611023565b5b61112e8482856110e5565b509392505050565b600082601f83011261114b5761114a61101e565b5b813561115b8482602086016110f4565b91505092915050565b60008060006060848603121561117d5761117c610fb6565b5b600061118b86828701611009565b935050602084013567ffffffffffffffff8111156111ac576111ab610fbb565b5b6111b886828701611136565b925050604084013567ffffffffffffffff8111156111d9576111d8610fbb565b5b6111e586828701611136565b9150509250925092565b6000819050919050565b611202816111ef565b811461120d57600080fd5b50565b60008135905061121f816111f9565b92915050565b60006020828403121561123b5761123a610fb6565b5b600061124984828501611210565b91505092915050565b61125b81610fe0565b82525050565b61126a816111ef565b82525050565b600081519050919050565b600082825260208201905092915050565b60005b838110156112aa57808201518184015260208101905061128f565b838111156112b9576000848401525b50505050565b60006112ca82611270565b6112d4818561127b565b93506112e481856020860161128c565b6112ed81611028565b840191505092915050565b600060808201905061130d6000830187611252565b61131a6020830186611261565b818103604083015261132c81856112bf565b9050818103606083015261134081846112bf565b905095945050505050565b60006020820190506113606000830184611261565b92915050565b7f4e487b7100000000000000000000000000000000000000000000000000000000600052602160045260246000fd5b600581106113a6576113a5611366565b5b50565b60008190506113b782611395565b919050565b60006113c7826113a9565b9050919050565b6113d7816113bc565b82525050565b6000610120820190506113f3600083018c611261565b8181036020830152611405818b6112bf565b90508181036040830152611419818a6112bf565b90506114286060830189611261565b818103608083015261143a81886112bf565b905061144960a0830187611261565b61145660c0830186611261565b61146360e0830185611261565b6114716101008301846113ce565b9a9950505050505050505050565b6000806040838503121561149657611495610fb6565b5b60006114a485828601611210565b92505060206114b585828601611210565b9150509250929050565b60006020820190506114d46000830184611252565b92915050565b600080600080608085870312156114f4576114f3610fb6565b5b600085013567ffffffffffffffff81111561151257611511610fbb565b5b61151e87828801611136565b945050602085013567ffffffffffffffff81111561153f5761153e610fbb565b5b61154b87828801611136565b935050604061155c87828801611210565b925050606085013567ffffffffffffffff81111561157d5761157c610fbb565b5b61158987828801611136565b91505092959194509250565b7f4e487b7100000000000000000000000000000000000000000000000000000000600052601160045260246000fd5b60006115cf826111ef565b91507fffffffffffffffffffffffffffffffffffffffffffffffffffffffffffffffff820361160157611600611595565b5b600182019050919050565b7f4e487b7100000000000000000000000000000000000000000000000000000000600052602260045260246000fd5b6000600282049050600182168061165357607f821691505b6020821081036116665761166561160c565b5b5091905056fea264697066735822122092e70f8f400f04077e74d6a052c28af609bf2ac24e08dd03edb9eff654b3208e64736f6c634300080d0033",
  "immutableReferences": {},
  "source": "// SPDX-License-Identifier: MIT\npragma solidity >=0.4.22 <0.9.0;\n\nimport \"./RoleManagement.sol\";\ncontract ProductManagement is RoleManagement {\n    enum STAGE { Init, Manufacture, Distribution, Retail, Sold }\n\n    uint256 public productCtr;\n\n    struct Product {\n        uint256 id;\n        string name;\n        string description;\n        uint256 price;\n        string imageHash;\n        uint256 MANid;\n        uint256 DISid;\n        uint256 RETid;\n        STAGE stage;\n    }\n\n    mapping(uint256 => Product) public ProductStock;\n    mapping(uint256 => uint256[]) public Products;\n\n    function addProduct(string memory _name, string memory _description, uint256 _price, string memory _imageHash)\n        public\n        onlyByOwner\n    {\n        productCtr++;\n        ProductStock[productCtr] = Product(productCtr, _name, _description, _price, _imageHash, 0, 0, 0, STAGE.Init);\n\n    }\n}\n",
  "sourcePath": "C:\\Users\\saraj\\OneDrive\\Desktop\\supplyrbo\\contracts\\ProductManagement.sol",
  "compiler": {
    "name": "solc",
    "version": "0.8.13+commit.abaa5c0e.Emscripten.clang"
  },
  "schemaVersion": "3.4.16",
  "updatedAt": "2024-05-16T17:36:52.914Z",
  "devdoc": {
    "kind": "dev",
    "methods": {},
    "version": 1
  },
  "userdoc": {
    "kind": "user",
    "methods": {},
    "version": 1
  }
}