{
  "contractName": "ProductManagement",
  "abi": [
    {
      "inputs": [
        {
          "internalType": "uint256",
          "name": "",
          "type": "uint256"
        }
      ],
      "name": "DIS",
      "outputs": [
        {
          "internalType": "address",
          "name": "addr",
          "type": "address"
        },
        {
          "internalType": "uint256",
          "name": "id",
          "type": "uint256"
        },
        {
          "internalType": "string",
          "name": "name",
          "type": "string"
        },
        {
          "internalType": "string",
          "name": "place",
          "type": "string"
        }
      ],
      "stateMutability": "view",
      "type": "function"
    },
    {
      "inputs": [
        {
          "internalType": "uint256",
          "name": "",
          "type": "uint256"
        }
      ],
      "name": "MAN",
      "outputs": [
        {
          "internalType": "address",
          "name": "addr",
          "type": "address"
        },
        {
          "internalType": "uint256",
          "name": "id",
          "type": "uint256"
        },
        {
          "internalType": "string",
          "name": "name",
          "type": "string"
        },
        {
          "internalType": "string",
          "name": "place",
          "type": "string"
        }
      ],
      "stateMutability": "view",
      "type": "function"
    },
    {
      "inputs": [],
      "name": "Owner",
      "outputs": [
        {
          "internalType": "address",
          "name": "",
          "type": "address"
        }
      ],
      "stateMutability": "view",
      "type": "function"
    },
    {
      "inputs": [
        {
          "internalType": "uint256",
          "name": "",
          "type": "uint256"
        }
      ],
      "name": "ProductStock",
      "outputs": [
        {
          "internalType": "uint256",
          "name": "id",
          "type": "uint256"
        },
        {
          "internalType": "string",
          "name": "name",
          "type": "string"
        },
        {
          "internalType": "string",
          "name": "description",
          "type": "string"
        },
        {
          "internalType": "uint256",
          "name": "price",
          "type": "uint256"
        },
        {
          "internalType": "string",
          "name": "imageHash",
          "type": "string"
        },
        {
          "internalType": "uint256",
          "name": "MANid",
          "type": "uint256"
        },
        {
          "internalType": "uint256",
          "name": "DISid",
          "type": "uint256"
        },
        {
          "internalType": "uint256",
          "name": "RETid",
          "type": "uint256"
        },
        {
          "internalType": "enum ProductManagement.STAGE",
          "name": "stage",
          "type": "uint8"
        }
      ],
      "stateMutability": "view",
      "type": "function"
    },
    {
      "inputs": [
        {
          "internalType": "uint256",
          "name": "",
          "type": "uint256"
        }
      ],
      "name": "RET",
      "outputs": [
        {
          "internalType": "address",
          "name": "addr",
          "type": "address"
        },
        {
          "internalType": "uint256",
          "name": "id",
          "type": "uint256"
        },
        {
          "internalType": "string",
          "name": "name",
          "type": "string"
        },
        {
          "internalType": "string",
          "name": "place",
          "type": "string"
        }
      ],
      "stateMutability": "view",
      "type": "function"
    },
    {
      "inputs": [
        {
          "internalType": "address",
          "name": "_address",
          "type": "address"
        },
        {
          "internalType": "string",
          "name": "_name",
          "type": "string"
        },
        {
          "internalType": "string",
          "name": "_place",
          "type": "string"
        }
      ],
      "name": "addDistributor",
      "outputs": [],
      "stateMutability": "nonpayable",
      "type": "function"
    },
    {
      "inputs": [
        {
          "internalType": "address",
          "name": "_address",
          "type": "address"
        },
        {
          "internalType": "string",
          "name": "_name",
          "type": "string"
        },
        {
          "internalType": "string",
          "name": "_place",
          "type": "string"
        }
      ],
      "name": "addManufacturer",
      "outputs": [],
      "stateMutability": "nonpayable",
      "type": "function"
    },
    {
      "inputs": [
        {
          "internalType": "address",
          "name": "_address",
          "type": "address"
        },
        {
          "internalType": "string",
          "name": "_name",
          "type": "string"
        },
        {
          "internalType": "string",
          "name": "_place",
          "type": "string"
        }
      ],
      "name": "addRetailer",
      "outputs": [],
      "stateMutability": "nonpayable",
      "type": "function"
    },
    {
      "inputs": [],
      "name": "disCtr",
      "outputs": [
        {
          "internalType": "uint256",
          "name": "",
          "type": "uint256"
        }
      ],
      "stateMutability": "view",
      "type": "function"
    },
    {
      "inputs": [],
      "name": "manCtr",
      "outputs": [
        {
          "internalType": "uint256",
          "name": "",
          "type": "uint256"
        }
      ],
      "stateMutability": "view",
      "type": "function"
    },
    {
      "inputs": [],
      "name": "productCtr",
      "outputs": [
        {
          "internalType": "uint256",
          "name": "",
          "type": "uint256"
        }
      ],
      "stateMutability": "view",
      "type": "function"
    },
    {
      "inputs": [],
      "name": "retCtr",
      "outputs": [
        {
          "internalType": "uint256",
          "name": "",
          "type": "uint256"
        }
      ],
      "stateMutability": "view",
      "type": "function"
    },
    {
      "inputs": [
        {
          "internalType": "string",
          "name": "_name",
          "type": "string"
        },
        {
          "internalType": "string",
          "name": "_description",
          "type": "string"
        },
        {
          "internalType": "uint256",
          "name": "_price",
          "type": "uint256"
        },
        {
          "internalType": "string",
          "name": "_imageHash",
          "type": "string"
        }
      ],
      "name": "addProduct",
      "outputs": [],
      "stateMutability": "nonpayable",
      "type": "function"
    }
  ],
  "bytecode": "0x608060405234801561001057600080fd5b50336000806101000a81548173ffffffffffffffffffffffffffffffffffffffff021916908373ffffffffffffffffffffffffffffffffffffffff1602179055506115e6806100606000396000f3fe608060405234801561001057600080fd5b50600436106100cf5760003560e01c80636a992c9f1161008c578063aaea34aa11610066578063aaea34aa14610220578063b4a99a4e1461023e578063cc4030691461025c578063f800d3321461028f576100cf565b80636a992c9f146101ca5780637e43d94d146101e6578063857ddb0414610204576100cf565b80632a4af440146100d45780632b0187ac146100f05780632bdb2e6b14610123578063438e9c4d146101415780635573d8b21461015f57806359bf286f14610197575b600080fd5b6100ee60048036038101906100e991906110e8565b6102ab565b005b61010a600480360381019061010591906111a9565b6103fc565b60405161011a949392919061127c565b60405180910390f35b61012b61055c565b60405161013891906112cf565b60405180910390f35b610149610562565b60405161015691906112cf565b60405180910390f35b610179600480360381019061017491906111a9565b610568565b60405161018e99989796959493929190611361565b60405180910390f35b6101b160048036038101906101ac91906111a9565b61075b565b6040516101c1949392919061127c565b60405180910390f35b6101e460048036038101906101df91906110e8565b6108bb565b005b6101ee610a0c565b6040516101fb91906112cf565b60405180910390f35b61021e600480360381019061021991906110e8565b610a12565b005b610228610b63565b60405161023591906112cf565b60405180910390f35b610246610b69565b6040516102539190611403565b60405180910390f35b610276600480360381019061027191906111a9565b610b8d565b604051610286949392919061127c565b60405180910390f35b6102a960048036038101906102a4919061141e565b610ced565b005b60008054906101000a900473ffffffffffffffffffffffffffffffffffffffff1673ffffffffffffffffffffffffffffffffffffffff163373ffffffffffffffffffffffffffffffffffffffff161461030357600080fd5b6002600081548092919061031690611508565b919050555060405180608001604052808473ffffffffffffffffffffffffffffffffffffffff16815260200160025481526020018381526020018281525060056000600254815260200190815260200160002060008201518160000160006101000a81548173ffffffffffffffffffffffffffffffffffffffff021916908373ffffffffffffffffffffffffffffffffffffffff1602179055506020820151816001015560408201518160020190805190602001906103d6929190610e8d565b5060608201518160030190805190602001906103f3929190610e8d565b50905050505050565b60056020528060005260406000206000915090508060000160009054906101000a900473ffffffffffffffffffffffffffffffffffffffff169080600101549080600201805461044b9061157f565b80601f01602080910402602001604051908101604052809291908181526020018280546104779061157f565b80156104c45780601f10610499576101008083540402835291602001916104c4565b820191906000526020600020905b8154815290600101906020018083116104a757829003601f168201915b5050505050908060030180546104d99061157f565b80601f01602080910402602001604051908101604052809291908181526020018280546105059061157f565b80156105525780601f1061052757610100808354040283529160200191610552565b820191906000526020600020905b81548152906001019060200180831161053557829003601f168201915b5050505050905084565b60025481565b60015481565b60086020528060005260406000206000915090508060000154908060010180546105919061157f565b80601f01602080910402602001604051908101604052809291908181526020018280546105bd9061157f565b801561060a5780601f106105df5761010080835404028352916020019161060a565b820191906000526020600020905b8154815290600101906020018083116105ed57829003601f168201915b50505050509080600201805461061f9061157f565b80601f016020809104026020016040519081016040528092919081815260200182805461064b9061157f565b80156106985780601f1061066d57610100808354040283529160200191610698565b820191906000526020600020905b81548152906001019060200180831161067b57829003601f168201915b5050505050908060030154908060040180546106b39061157f565b80601f01602080910402602001604051908101604052809291908181526020018280546106df9061157f565b801561072c5780601f106107015761010080835404028352916020019161072c565b820191906000526020600020905b81548152906001019060200180831161070f57829003601f168201915b5050505050908060050154908060060154908060070154908060080160009054906101000a900460ff16905089565b60066020528060005260406000206000915090508060000160009054906101000a900473ffffffffffffffffffffffffffffffffffffffff16908060010154908060020180546107aa9061157f565b80601f01602080910402602001604051908101604052809291908181526020018280546107d69061157f565b80156108235780601f106107f857610100808354040283529160200191610823565b820191906000526020600020905b81548152906001019060200180831161080657829003601f168201915b5050505050908060030180546108389061157f565b80601f01602080910402602001604051908101604052809291908181526020018280546108649061157f565b80156108b15780601f10610886576101008083540402835291602001916108b1565b820191906000526020600020905b81548152906001019060200180831161089457829003601f168201915b5050505050905084565b60008054906101000a900473ffffffffffffffffffffffffffffffffffffffff1673ffffffffffffffffffffffffffffffffffffffff163373ffffffffffffffffffffffffffffffffffffffff161461091357600080fd5b6001600081548092919061092690611508565b919050555060405180608001604052808473ffffffffffffffffffffffffffffffffffffffff16815260200160015481526020018381526020018281525060046000600154815260200190815260200160002060008201518160000160006101000a81548173ffffffffffffffffffffffffffffffffffffffff021916908373ffffffffffffffffffffffffffffffffffffffff1602179055506020820151816001015560408201518160020190805190602001906109e6929190610e8d565b506060820151816003019080519060200190610a03929190610e8d565b50905050505050565b60035481565b60008054906101000a900473ffffffffffffffffffffffffffffffffffffffff1673ffffffffffffffffffffffffffffffffffffffff163373ffffffffffffffffffffffffffffffffffffffff1614610a6a57600080fd5b60036000815480929190610a7d90611508565b919050555060405180608001604052808473ffffffffffffffffffffffffffffffffffffffff16815260200160035481526020018381526020018281525060066000600354815260200190815260200160002060008201518160000160006101000a81548173ffffffffffffffffffffffffffffffffffffffff021916908373ffffffffffffffffffffffffffffffffffffffff160217905550602082015181600101556040820151816002019080519060200190610b3d929190610e8d565b506060820151816003019080519060200190610b5a929190610e8d565b50905050505050565b60075481565b60008054906101000a900473ffffffffffffffffffffffffffffffffffffffff1681565b60046020528060005260406000206000915090508060000160009054906101000a900473ffffffffffffffffffffffffffffffffffffffff1690806001015490806002018054610bdc9061157f565b80601f0160208091040260200160405190810160405280929190818152602001828054610c089061157f565b8015610c555780601f10610c2a57610100808354040283529160200191610c55565b820191906000526020600020905b815481529060010190602001808311610c3857829003601f168201915b505050505090806003018054610c6a9061157f565b80601f0160208091040260200160405190810160405280929190818152602001828054610c969061157f565b8015610ce35780601f10610cb857610100808354040283529160200191610ce3565b820191906000526020600020905b815481529060010190602001808311610cc657829003601f168201915b5050505050905084565b60008054906101000a900473ffffffffffffffffffffffffffffffffffffffff1673ffffffffffffffffffffffffffffffffffffffff163373ffffffffffffffffffffffffffffffffffffffff1614610d4557600080fd5b60076000815480929190610d5890611508565b9190505550604051806101200160405280600754815260200185815260200184815260200183815260200182815260200160008152602001600081526020016000815260200160006004811115610db257610db16112ea565b5b815250600860006007548152602001908152602001600020600082015181600001556020820151816001019080519060200190610df0929190610e8d565b506040820151816002019080519060200190610e0d929190610e8d565b50606082015181600301556080820151816004019080519060200190610e34929190610e8d565b5060a0820151816005015560c0820151816006015560e082015181600701556101008201518160080160006101000a81548160ff02191690836004811115610e7f57610e7e6112ea565b5b021790555090505050505050565b828054610e999061157f565b90600052602060002090601f016020900481019282610ebb5760008555610f02565b82601f10610ed457805160ff1916838001178555610f02565b82800160010185558215610f02579182015b82811115610f01578251825591602001919060010190610ee6565b5b509050610f0f9190610f13565b5090565b5b80821115610f2c576000816000905550600101610f14565b5090565b6000604051905090565b600080fd5b600080fd5b600073ffffffffffffffffffffffffffffffffffffffff82169050919050565b6000610f6f82610f44565b9050919050565b610f7f81610f64565b8114610f8a57600080fd5b50565b600081359050610f9c81610f76565b92915050565b600080fd5b600080fd5b6000601f19601f8301169050919050565b7f4e487b7100000000000000000000000000000000000000000000000000000000600052604160045260246000fd5b610ff582610fac565b810181811067ffffffffffffffff8211171561101457611013610fbd565b5b80604052505050565b6000611027610f30565b90506110338282610fec565b919050565b600067ffffffffffffffff82111561105357611052610fbd565b5b61105c82610fac565b9050602081019050919050565b82818337600083830152505050565b600061108b61108684611038565b61101d565b9050828152602081018484840111156110a7576110a6610fa7565b5b6110b2848285611069565b509392505050565b600082601f8301126110cf576110ce610fa2565b5b81356110df848260208601611078565b91505092915050565b60008060006060848603121561110157611100610f3a565b5b600061110f86828701610f8d565b935050602084013567ffffffffffffffff8111156111305761112f610f3f565b5b61113c868287016110ba565b925050604084013567ffffffffffffffff81111561115d5761115c610f3f565b5b611169868287016110ba565b9150509250925092565b6000819050919050565b61118681611173565b811461119157600080fd5b50565b6000813590506111a38161117d565b92915050565b6000602082840312156111bf576111be610f3a565b5b60006111cd84828501611194565b91505092915050565b6111df81610f64565b82525050565b6111ee81611173565b82525050565b600081519050919050565b600082825260208201905092915050565b60005b8381101561122e578082015181840152602081019050611213565b8381111561123d576000848401525b50505050565b600061124e826111f4565b61125881856111ff565b9350611268818560208601611210565b61127181610fac565b840191505092915050565b600060808201905061129160008301876111d6565b61129e60208301866111e5565b81810360408301526112b08185611243565b905081810360608301526112c48184611243565b905095945050505050565b60006020820190506112e460008301846111e5565b92915050565b7f4e487b7100000000000000000000000000000000000000000000000000000000600052602160045260246000fd5b6005811061132a576113296112ea565b5b50565b600081905061133b82611319565b919050565b600061134b8261132d565b9050919050565b61135b81611340565b82525050565b600061012082019050611377600083018c6111e5565b8181036020830152611389818b611243565b9050818103604083015261139d818a611243565b90506113ac60608301896111e5565b81810360808301526113be8188611243565b90506113cd60a08301876111e5565b6113da60c08301866111e5565b6113e760e08301856111e5565b6113f5610100830184611352565b9a9950505050505050505050565b600060208201905061141860008301846111d6565b92915050565b6000806000806080858703121561143857611437610f3a565b5b600085013567ffffffffffffffff81111561145657611455610f3f565b5b611462878288016110ba565b945050602085013567ffffffffffffffff81111561148357611482610f3f565b5b61148f878288016110ba565b93505060406114a087828801611194565b925050606085013567ffffffffffffffff8111156114c1576114c0610f3f565b5b6114cd878288016110ba565b91505092959194509250565b7f4e487b7100000000000000000000000000000000000000000000000000000000600052601160045260246000fd5b600061151382611173565b91507fffffffffffffffffffffffffffffffffffffffffffffffffffffffffffffffff8203611545576115446114d9565b5b600182019050919050565b7f4e487b7100000000000000000000000000000000000000000000000000000000600052602260045260246000fd5b6000600282049050600182168061159757607f821691505b6020821081036115aa576115a9611550565b5b5091905056fea264697066735822122063e32acd60ac48cb66455f561420bf3c061d509bdf10fd43b699b85db61ee3b964736f6c634300080d0033",
  "immutableReferences": {},
  "source": "// SPDX-License-Identifier: MIT\npragma solidity >=0.4.22 <0.9.0;\n\nimport \"./RoleManagement.sol\";\ncontract ProductManagement is RoleManagement {\n    enum STAGE { Init, Manufacture, Distribution, Retail, Sold }\n\n    uint256 public productCtr;\n\n    struct Product {\n        uint256 id;\n        string name;\n        string description;\n        uint256 price;\n        string imageHash;\n        uint256 MANid;\n        uint256 DISid;\n        uint256 RETid;\n        STAGE stage;\n    }\n\n    mapping(uint256 => Product) public ProductStock;\n\n    function addProduct(string memory _name, string memory _description, uint256 _price, string memory _imageHash)\n        public\n        onlyByOwner\n    {\n        productCtr++;\n        ProductStock[productCtr] = Product(productCtr, _name, _description, _price, _imageHash, 0, 0, 0, STAGE.Init);\n    }\n}\n",
  "sourcePath": "C:\\Users\\saraj\\OneDrive\\Desktop\\supplyrbo\\contracts\\ProductManagement.sol",
  "compiler": {
    "name": "solc",
    "version": "0.8.13+commit.abaa5c0e.Emscripten.clang"
  },
  "schemaVersion": "3.4.16",
  "updatedAt": "2024-05-08T15:18:51.091Z",
  "devdoc": {
    "kind": "dev",
    "methods": {},
    "version": 1
  },
  "userdoc": {
    "kind": "user",
    "methods": {},
    "version": 1
  }
}