{
  "contractName": "RoleManagement",
  "abi": [
    {
      "inputs": [],
      "stateMutability": "nonpayable",
      "type": "constructor"
    },
    {
      "inputs": [
        {
          "internalType": "uint256",
          "name": "",
          "type": "uint256"
        }
      ],
      "name": "DIS",
      "outputs": [
        {
          "internalType": "address",
          "name": "addr",
          "type": "address"
        },
        {
          "internalType": "uint256",
          "name": "id",
          "type": "uint256"
        },
        {
          "internalType": "string",
          "name": "name",
          "type": "string"
        },
        {
          "internalType": "string",
          "name": "place",
          "type": "string"
        }
      ],
      "stateMutability": "view",
      "type": "function"
    },
    {
      "inputs": [
        {
          "internalType": "uint256",
          "name": "",
          "type": "uint256"
        }
      ],
      "name": "MAN",
      "outputs": [
        {
          "internalType": "address",
          "name": "addr",
          "type": "address"
        },
        {
          "internalType": "uint256",
          "name": "id",
          "type": "uint256"
        },
        {
          "internalType": "string",
          "name": "name",
          "type": "string"
        },
        {
          "internalType": "string",
          "name": "place",
          "type": "string"
        }
      ],
      "stateMutability": "view",
      "type": "function"
    },
    {
      "inputs": [],
      "name": "Owner",
      "outputs": [
        {
          "internalType": "address",
          "name": "",
          "type": "address"
        }
      ],
      "stateMutability": "view",
      "type": "function"
    },
    {
      "inputs": [
        {
          "internalType": "uint256",
          "name": "",
          "type": "uint256"
        }
      ],
      "name": "RET",
      "outputs": [
        {
          "internalType": "address",
          "name": "addr",
          "type": "address"
        },
        {
          "internalType": "uint256",
          "name": "id",
          "type": "uint256"
        },
        {
          "internalType": "string",
          "name": "name",
          "type": "string"
        },
        {
          "internalType": "string",
          "name": "place",
          "type": "string"
        }
      ],
      "stateMutability": "view",
      "type": "function"
    },
    {
      "inputs": [],
      "name": "disCtr",
      "outputs": [
        {
          "internalType": "uint256",
          "name": "",
          "type": "uint256"
        }
      ],
      "stateMutability": "view",
      "type": "function"
    },
    {
      "inputs": [],
      "name": "manCtr",
      "outputs": [
        {
          "internalType": "uint256",
          "name": "",
          "type": "uint256"
        }
      ],
      "stateMutability": "view",
      "type": "function"
    },
    {
      "inputs": [],
      "name": "retCtr",
      "outputs": [
        {
          "internalType": "uint256",
          "name": "",
          "type": "uint256"
        }
      ],
      "stateMutability": "view",
      "type": "function"
    },
    {
      "inputs": [
        {
          "internalType": "address",
          "name": "_address",
          "type": "address"
        },
        {
          "internalType": "string",
          "name": "_name",
          "type": "string"
        },
        {
          "internalType": "string",
          "name": "_place",
          "type": "string"
        }
      ],
      "name": "addManufacturer",
      "outputs": [],
      "stateMutability": "nonpayable",
      "type": "function"
    },
    {
      "inputs": [
        {
          "internalType": "address",
          "name": "_address",
          "type": "address"
        },
        {
          "internalType": "string",
          "name": "_name",
          "type": "string"
        },
        {
          "internalType": "string",
          "name": "_place",
          "type": "string"
        }
      ],
      "name": "addDistributor",
      "outputs": [],
      "stateMutability": "nonpayable",
      "type": "function"
    },
    {
      "inputs": [
        {
          "internalType": "address",
          "name": "_address",
          "type": "address"
        },
        {
          "internalType": "string",
          "name": "_name",
          "type": "string"
        },
        {
          "internalType": "string",
          "name": "_place",
          "type": "string"
        }
      ],
      "name": "addRetailer",
      "outputs": [],
      "stateMutability": "nonpayable",
      "type": "function"
    }
  ],
  "bytecode": "0x608060405234801561001057600080fd5b50336000806101000a81548173ffffffffffffffffffffffffffffffffffffffff021916908373ffffffffffffffffffffffffffffffffffffffff160217905550610fd6806100606000396000f3fe608060405234801561001057600080fd5b506004361061009e5760003560e01c80636a992c9f116100665780636a992c9f146101615780637e43d94d1461017d578063857ddb041461019b578063b4a99a4e146101b7578063cc403069146101d55761009e565b80632a4af440146100a35780632b0187ac146100bf5780632bdb2e6b146100f2578063438e9c4d1461011057806359bf286f1461012e575b600080fd5b6100bd60048036038101906100b89190610cac565b610208565b005b6100d960048036038101906100d49190610d6d565b610359565b6040516100e99493929190610e40565b60405180910390f35b6100fa6104b9565b6040516101079190610e93565b60405180910390f35b6101186104bf565b6040516101259190610e93565b60405180910390f35b61014860048036038101906101439190610d6d565b6104c5565b6040516101589493929190610e40565b60405180910390f35b61017b60048036038101906101769190610cac565b610625565b005b610185610776565b6040516101929190610e93565b60405180910390f35b6101b560048036038101906101b09190610cac565b61077c565b005b6101bf6108cd565b6040516101cc9190610eae565b60405180910390f35b6101ef60048036038101906101ea9190610d6d565b6108f1565b6040516101ff9493929190610e40565b60405180910390f35b60008054906101000a900473ffffffffffffffffffffffffffffffffffffffff1673ffffffffffffffffffffffffffffffffffffffff163373ffffffffffffffffffffffffffffffffffffffff161461026057600080fd5b6002600081548092919061027390610ef8565b919050555060405180608001604052808473ffffffffffffffffffffffffffffffffffffffff16815260200160025481526020018381526020018281525060056000600254815260200190815260200160002060008201518160000160006101000a81548173ffffffffffffffffffffffffffffffffffffffff021916908373ffffffffffffffffffffffffffffffffffffffff160217905550602082015181600101556040820151816002019080519060200190610333929190610a51565b506060820151816003019080519060200190610350929190610a51565b50905050505050565b60056020528060005260406000206000915090508060000160009054906101000a900473ffffffffffffffffffffffffffffffffffffffff16908060010154908060020180546103a890610f6f565b80601f01602080910402602001604051908101604052809291908181526020018280546103d490610f6f565b80156104215780601f106103f657610100808354040283529160200191610421565b820191906000526020600020905b81548152906001019060200180831161040457829003601f168201915b50505050509080600301805461043690610f6f565b80601f016020809104026020016040519081016040528092919081815260200182805461046290610f6f565b80156104af5780601f10610484576101008083540402835291602001916104af565b820191906000526020600020905b81548152906001019060200180831161049257829003601f168201915b5050505050905084565b60025481565b60015481565b60066020528060005260406000206000915090508060000160009054906101000a900473ffffffffffffffffffffffffffffffffffffffff169080600101549080600201805461051490610f6f565b80601f016020809104026020016040519081016040528092919081815260200182805461054090610f6f565b801561058d5780601f106105625761010080835404028352916020019161058d565b820191906000526020600020905b81548152906001019060200180831161057057829003601f168201915b5050505050908060030180546105a290610f6f565b80601f01602080910402602001604051908101604052809291908181526020018280546105ce90610f6f565b801561061b5780601f106105f05761010080835404028352916020019161061b565b820191906000526020600020905b8154815290600101906020018083116105fe57829003601f168201915b5050505050905084565b60008054906101000a900473ffffffffffffffffffffffffffffffffffffffff1673ffffffffffffffffffffffffffffffffffffffff163373ffffffffffffffffffffffffffffffffffffffff161461067d57600080fd5b6001600081548092919061069090610ef8565b919050555060405180608001604052808473ffffffffffffffffffffffffffffffffffffffff16815260200160015481526020018381526020018281525060046000600154815260200190815260200160002060008201518160000160006101000a81548173ffffffffffffffffffffffffffffffffffffffff021916908373ffffffffffffffffffffffffffffffffffffffff160217905550602082015181600101556040820151816002019080519060200190610750929190610a51565b50606082015181600301908051906020019061076d929190610a51565b50905050505050565b60035481565b60008054906101000a900473ffffffffffffffffffffffffffffffffffffffff1673ffffffffffffffffffffffffffffffffffffffff163373ffffffffffffffffffffffffffffffffffffffff16146107d457600080fd5b600360008154809291906107e790610ef8565b919050555060405180608001604052808473ffffffffffffffffffffffffffffffffffffffff16815260200160035481526020018381526020018281525060066000600354815260200190815260200160002060008201518160000160006101000a81548173ffffffffffffffffffffffffffffffffffffffff021916908373ffffffffffffffffffffffffffffffffffffffff1602179055506020820151816001015560408201518160020190805190602001906108a7929190610a51565b5060608201518160030190805190602001906108c4929190610a51565b50905050505050565b60008054906101000a900473ffffffffffffffffffffffffffffffffffffffff1681565b60046020528060005260406000206000915090508060000160009054906101000a900473ffffffffffffffffffffffffffffffffffffffff169080600101549080600201805461094090610f6f565b80601f016020809104026020016040519081016040528092919081815260200182805461096c90610f6f565b80156109b95780601f1061098e576101008083540402835291602001916109b9565b820191906000526020600020905b81548152906001019060200180831161099c57829003601f168201915b5050505050908060030180546109ce90610f6f565b80601f01602080910402602001604051908101604052809291908181526020018280546109fa90610f6f565b8015610a475780601f10610a1c57610100808354040283529160200191610a47565b820191906000526020600020905b815481529060010190602001808311610a2a57829003601f168201915b5050505050905084565b828054610a5d90610f6f565b90600052602060002090601f016020900481019282610a7f5760008555610ac6565b82601f10610a9857805160ff1916838001178555610ac6565b82800160010185558215610ac6579182015b82811115610ac5578251825591602001919060010190610aaa565b5b509050610ad39190610ad7565b5090565b5b80821115610af0576000816000905550600101610ad8565b5090565b6000604051905090565b600080fd5b600080fd5b600073ffffffffffffffffffffffffffffffffffffffff82169050919050565b6000610b3382610b08565b9050919050565b610b4381610b28565b8114610b4e57600080fd5b50565b600081359050610b6081610b3a565b92915050565b600080fd5b600080fd5b6000601f19601f8301169050919050565b7f4e487b7100000000000000000000000000000000000000000000000000000000600052604160045260246000fd5b610bb982610b70565b810181811067ffffffffffffffff82111715610bd857610bd7610b81565b5b80604052505050565b6000610beb610af4565b9050610bf78282610bb0565b919050565b600067ffffffffffffffff821115610c1757610c16610b81565b5b610c2082610b70565b9050602081019050919050565b82818337600083830152505050565b6000610c4f610c4a84610bfc565b610be1565b905082815260208101848484011115610c6b57610c6a610b6b565b5b610c76848285610c2d565b509392505050565b600082601f830112610c9357610c92610b66565b5b8135610ca3848260208601610c3c565b91505092915050565b600080600060608486031215610cc557610cc4610afe565b5b6000610cd386828701610b51565b935050602084013567ffffffffffffffff811115610cf457610cf3610b03565b5b610d0086828701610c7e565b925050604084013567ffffffffffffffff811115610d2157610d20610b03565b5b610d2d86828701610c7e565b9150509250925092565b6000819050919050565b610d4a81610d37565b8114610d5557600080fd5b50565b600081359050610d6781610d41565b92915050565b600060208284031215610d8357610d82610afe565b5b6000610d9184828501610d58565b91505092915050565b610da381610b28565b82525050565b610db281610d37565b82525050565b600081519050919050565b600082825260208201905092915050565b60005b83811015610df2578082015181840152602081019050610dd7565b83811115610e01576000848401525b50505050565b6000610e1282610db8565b610e1c8185610dc3565b9350610e2c818560208601610dd4565b610e3581610b70565b840191505092915050565b6000608082019050610e556000830187610d9a565b610e626020830186610da9565b8181036040830152610e748185610e07565b90508181036060830152610e888184610e07565b905095945050505050565b6000602082019050610ea86000830184610da9565b92915050565b6000602082019050610ec36000830184610d9a565b92915050565b7f4e487b7100000000000000000000000000000000000000000000000000000000600052601160045260246000fd5b6000610f0382610d37565b91507fffffffffffffffffffffffffffffffffffffffffffffffffffffffffffffffff8203610f3557610f34610ec9565b5b600182019050919050565b7f4e487b7100000000000000000000000000000000000000000000000000000000600052602260045260246000fd5b60006002820490506001821680610f8757607f821691505b602082108103610f9a57610f99610f40565b5b5091905056fea2646970667358221220fddbab88d65287111b22866b1e16bf33c625d126043b1a2966a6389b20e55b6c64736f6c634300080d0033",
  "immutableReferences": {},
  "source": "// SPDX-License-Identifier: MIT\npragma solidity >=0.4.22 <0.9.0;\n\ncontract RoleManagement {\n    address public Owner;\n\n    constructor() {\n        Owner = msg.sender;\n    }\n\n    modifier onlyByOwner() {\n        require(msg.sender == Owner);\n        _;\n    }\n\n    struct Manufacturer {\n        address addr;\n        uint256 id;\n        string name;\n        string place;\n    }\n\n    struct Distributor {\n        address addr;\n        uint256 id;\n        string name;\n        string place;\n    }\n\n    struct Retailer {\n        address addr;\n        uint256 id;\n        string name;\n        string place;\n    }\n\n    uint256 public manCtr;\n    uint256 public disCtr;\n    uint256 public retCtr;\n\n    mapping(uint256 => Manufacturer) public MAN;\n    mapping(uint256 => Distributor) public DIS;\n    mapping(uint256 => Retailer) public RET;\n\n    function addManufacturer(address _address, string memory _name, string memory _place) public onlyByOwner {\n        manCtr++;\n        MAN[manCtr] = Manufacturer(_address, manCtr, _name, _place);\n    }\n\n    function addDistributor(address _address, string memory _name, string memory _place) public onlyByOwner {\n        disCtr++;\n        DIS[disCtr] = Distributor(_address, disCtr, _name, _place);\n    }\n\n    function addRetailer(address _address, string memory _name, string memory _place) public onlyByOwner {\n        retCtr++;\n        RET[retCtr] = Retailer(_address, retCtr, _name, _place);\n    }\n}\n",
  "sourcePath": "C:\\Users\\saraj\\OneDrive\\Desktop\\supplyrbo\\contracts\\RoleManagement.sol",
  "compiler": {
    "name": "solc",
    "version": "0.8.13+commit.abaa5c0e.Emscripten.clang"
  },
  "schemaVersion": "3.4.16",
  "updatedAt": "2024-05-08T15:18:51.103Z",
  "devdoc": {
    "kind": "dev",
    "methods": {},
    "version": 1
  },
  "userdoc": {
    "kind": "user",
    "methods": {},
    "version": 1
  }
}