{
  "contractName": "TransactionManagement",
  "abi": [
    {
      "inputs": [
        {
          "internalType": "uint256",
          "name": "",
          "type": "uint256"
        }
      ],
      "name": "DIS",
      "outputs": [
        {
          "internalType": "address",
          "name": "addr",
          "type": "address"
        },
        {
          "internalType": "uint256",
          "name": "id",
          "type": "uint256"
        },
        {
          "internalType": "string",
          "name": "name",
          "type": "string"
        },
        {
          "internalType": "string",
          "name": "place",
          "type": "string"
        }
      ],
      "stateMutability": "view",
      "type": "function",
      "constant": true
    },
    {
      "inputs": [
        {
          "internalType": "uint256",
          "name": "",
          "type": "uint256"
        }
      ],
      "name": "MAN",
      "outputs": [
        {
          "internalType": "address",
          "name": "addr",
          "type": "address"
        },
        {
          "internalType": "uint256",
          "name": "id",
          "type": "uint256"
        },
        {
          "internalType": "string",
          "name": "name",
          "type": "string"
        },
        {
          "internalType": "string",
          "name": "place",
          "type": "string"
        }
      ],
      "stateMutability": "view",
      "type": "function",
      "constant": true
    },
    {
      "inputs": [],
      "name": "Owner",
      "outputs": [
        {
          "internalType": "address",
          "name": "",
          "type": "address"
        }
      ],
      "stateMutability": "view",
      "type": "function",
      "constant": true
    },
    {
      "inputs": [
        {
          "internalType": "uint256",
          "name": "",
          "type": "uint256"
        }
      ],
      "name": "ProductStock",
      "outputs": [
        {
          "internalType": "uint256",
          "name": "id",
          "type": "uint256"
        },
        {
          "internalType": "string",
          "name": "name",
          "type": "string"
        },
        {
          "internalType": "string",
          "name": "description",
          "type": "string"
        },
        {
          "internalType": "uint256",
          "name": "price",
          "type": "uint256"
        },
        {
          "internalType": "string",
          "name": "imageHash",
          "type": "string"
        },
        {
          "internalType": "uint256",
          "name": "MANid",
          "type": "uint256"
        },
        {
          "internalType": "uint256",
          "name": "DISid",
          "type": "uint256"
        },
        {
          "internalType": "uint256",
          "name": "RETid",
          "type": "uint256"
        },
        {
          "internalType": "enum ProductManagement.STAGE",
          "name": "stage",
          "type": "uint8"
        }
      ],
      "stateMutability": "view",
      "type": "function",
      "constant": true
    },
    {
      "inputs": [
        {
          "internalType": "uint256",
          "name": "",
          "type": "uint256"
        },
        {
          "internalType": "uint256",
          "name": "",
          "type": "uint256"
        }
      ],
      "name": "Products",
      "outputs": [
        {
          "internalType": "uint256",
          "name": "",
          "type": "uint256"
        }
      ],
      "stateMutability": "view",
      "type": "function",
      "constant": true
    },
    {
      "inputs": [
        {
          "internalType": "uint256",
          "name": "",
          "type": "uint256"
        }
      ],
      "name": "RET",
      "outputs": [
        {
          "internalType": "address",
          "name": "addr",
          "type": "address"
        },
        {
          "internalType": "uint256",
          "name": "id",
          "type": "uint256"
        },
        {
          "internalType": "string",
          "name": "name",
          "type": "string"
        },
        {
          "internalType": "string",
          "name": "place",
          "type": "string"
        }
      ],
      "stateMutability": "view",
      "type": "function",
      "constant": true
    },
    {
      "inputs": [
        {
          "internalType": "address",
          "name": "_address",
          "type": "address"
        },
        {
          "internalType": "string",
          "name": "_name",
          "type": "string"
        },
        {
          "internalType": "string",
          "name": "_place",
          "type": "string"
        }
      ],
      "name": "addDistributor",
      "outputs": [],
      "stateMutability": "nonpayable",
      "type": "function"
    },
    {
      "inputs": [
        {
          "internalType": "address",
          "name": "_address",
          "type": "address"
        },
        {
          "internalType": "string",
          "name": "_name",
          "type": "string"
        },
        {
          "internalType": "string",
          "name": "_place",
          "type": "string"
        }
      ],
      "name": "addManufacturer",
      "outputs": [],
      "stateMutability": "nonpayable",
      "type": "function"
    },
    {
      "inputs": [
        {
          "internalType": "string",
          "name": "_name",
          "type": "string"
        },
        {
          "internalType": "string",
          "name": "_description",
          "type": "string"
        },
        {
          "internalType": "uint256",
          "name": "_price",
          "type": "uint256"
        },
        {
          "internalType": "string",
          "name": "_imageHash",
          "type": "string"
        }
      ],
      "name": "addProduct",
      "outputs": [],
      "stateMutability": "nonpayable",
      "type": "function"
    },
    {
      "inputs": [
        {
          "internalType": "address",
          "name": "_address",
          "type": "address"
        },
        {
          "internalType": "string",
          "name": "_name",
          "type": "string"
        },
        {
          "internalType": "string",
          "name": "_place",
          "type": "string"
        }
      ],
      "name": "addRetailer",
      "outputs": [],
      "stateMutability": "nonpayable",
      "type": "function"
    },
    {
      "inputs": [],
      "name": "disCtr",
      "outputs": [
        {
          "internalType": "uint256",
          "name": "",
          "type": "uint256"
        }
      ],
      "stateMutability": "view",
      "type": "function",
      "constant": true
    },
    {
      "inputs": [],
      "name": "manCtr",
      "outputs": [
        {
          "internalType": "uint256",
          "name": "",
          "type": "uint256"
        }
      ],
      "stateMutability": "view",
      "type": "function",
      "constant": true
    },
    {
      "inputs": [],
      "name": "productCtr",
      "outputs": [
        {
          "internalType": "uint256",
          "name": "",
          "type": "uint256"
        }
      ],
      "stateMutability": "view",
      "type": "function",
      "constant": true
    },
    {
      "inputs": [
        {
          "internalType": "address",
          "name": "",
          "type": "address"
        },
        {
          "internalType": "uint256",
          "name": "",
          "type": "uint256"
        }
      ],
      "name": "purchases",
      "outputs": [
        {
          "internalType": "uint256",
          "name": "",
          "type": "uint256"
        }
      ],
      "stateMutability": "view",
      "type": "function",
      "constant": true
    },
    {
      "inputs": [],
      "name": "retCtr",
      "outputs": [
        {
          "internalType": "uint256",
          "name": "",
          "type": "uint256"
        }
      ],
      "stateMutability": "view",
      "type": "function",
      "constant": true
    },
    {
      "inputs": [
        {
          "internalType": "uint256",
          "name": "_productID",
          "type": "uint256"
        }
      ],
      "name": "Manufacturing",
      "outputs": [],
      "stateMutability": "nonpayable",
      "type": "function"
    },
    {
      "inputs": [
        {
          "internalType": "uint256",
          "name": "_productID",
          "type": "uint256"
        }
      ],
      "name": "Distribute",
      "outputs": [],
      "stateMutability": "nonpayable",
      "type": "function"
    },
    {
      "inputs": [
        {
          "internalType": "uint256",
          "name": "_productID",
          "type": "uint256"
        }
      ],
      "name": "Retail",
      "outputs": [],
      "stateMutability": "nonpayable",
      "type": "function"
    },
    {
      "inputs": [
        {
          "internalType": "address",
          "name": "userAddress",
          "type": "address"
        }
      ],
      "name": "findProductsByAddress",
      "outputs": [
        {
          "internalType": "uint256[]",
          "name": "",
          "type": "uint256[]"
        }
      ],
      "stateMutability": "view",
      "type": "function",
      "constant": true
    },
    {
      "inputs": [
        {
          "internalType": "uint256",
          "name": "_productID",
          "type": "uint256"
        }
      ],
      "name": "purchaseProduct",
      "outputs": [],
      "stateMutability": "payable",
      "type": "function",
      "payable": true
    }
  ],
  "bytecode": "0x608060405234801561001057600080fd5b50336000806101000a81548173ffffffffffffffffffffffffffffffffffffffff021916908373ffffffffffffffffffffffffffffffffffffffff16021790555061231a806100606000396000f3fe60806040526004361061011f5760003560e01c806359bf286f116100a0578063a48d335a11610064578063a48d335a1461040a578063aaea34aa14610433578063b4a99a4e1461045e578063cc40306914610489578063f800d332146104c95761011f565b806359bf286f1461031057806362982bf0146103505780636a992c9f1461038d5780637e43d94d146103b6578063857ddb04146103e15761011f565b80633d753a1c116100e75780633d753a1c14610211578063438e9c4d1461023a5780634def474a1461026557806352d3f8491461028e5780635573d8b2146102cb5761011f565b806309d1347d146101245780632a4af440146101615780632b0187ac1461018a5780632bdb2e6b146101ca57806338e76a03146101f5575b600080fd5b34801561013057600080fd5b5061014b60048036038101906101469190611b49565b6104f2565b6040516101589190611c3e565b60405180910390f35b34801561016d57600080fd5b5061018860048036038101906101839190611da6565b610669565b005b34801561019657600080fd5b506101b160048036038101906101ac9190611e5d565b6107ba565b6040516101c19493929190611f30565b60405180910390f35b3480156101d657600080fd5b506101df61091a565b6040516101ec9190611f83565b60405180910390f35b61020f600480360381019061020a9190611e5d565b610920565b005b34801561021d57600080fd5b5061023860048036038101906102339190611e5d565b610af2565b005b34801561024657600080fd5b5061024f610c13565b60405161025c9190611f83565b60405180910390f35b34801561027157600080fd5b5061028c60048036038101906102879190611e5d565b610c19565b005b34801561029a57600080fd5b506102b560048036038101906102b09190611f9e565b610d3a565b6040516102c29190611f83565b60405180910390f35b3480156102d757600080fd5b506102f260048036038101906102ed9190611e5d565b610d6b565b60405161030799989796959493929190612055565b60405180910390f35b34801561031c57600080fd5b5061033760048036038101906103329190611e5d565b610f5e565b6040516103479493929190611f30565b60405180910390f35b34801561035c57600080fd5b50610377600480360381019061037291906120f7565b6110be565b6040516103849190611f83565b60405180910390f35b34801561039957600080fd5b506103b460048036038101906103af9190611da6565b6110ef565b005b3480156103c257600080fd5b506103cb611240565b6040516103d89190611f83565b60405180910390f35b3480156103ed57600080fd5b5061040860048036038101906104039190611da6565b611246565b005b34801561041657600080fd5b50610431600480360381019061042c9190611e5d565b611397565b005b34801561043f57600080fd5b506104486114b8565b6040516104559190611f83565b60405180910390f35b34801561046a57600080fd5b506104736114be565b6040516104809190612137565b60405180910390f35b34801561049557600080fd5b506104b060048036038101906104ab9190611e5d565b6114e2565b6040516104c09493929190611f30565b60405180910390f35b3480156104d557600080fd5b506104f060048036038101906104eb9190612152565b611642565b005b6060806000610500846117e2565b90506000811461056f576009600082815260200190815260200160002080548060200260200160405190810160405280929190818152602001828054801561056757602002820191906000526020600020905b815481526020019060010190808311610553575b505050505091505b610578846118a8565b9050600081146105e757600960008281526020019081526020016000208054806020026020016040519081016040528092919081815260200182805480156105df57602002820191906000526020600020905b8154815260200190600101908083116105cb575b505050505091505b6105f08461196e565b90506000811461065f576009600082815260200190815260200160002080548060200260200160405190810160405280929190818152602001828054801561065757602002820191906000526020600020905b815481526020019060010190808311610643575b505050505091505b8192505050919050565b60008054906101000a900473ffffffffffffffffffffffffffffffffffffffff1673ffffffffffffffffffffffffffffffffffffffff163373ffffffffffffffffffffffffffffffffffffffff16146106c157600080fd5b600260008154809291906106d49061223c565b919050555060405180608001604052808473ffffffffffffffffffffffffffffffffffffffff16815260200160025481526020018381526020018281525060056000600254815260200190815260200160002060008201518160000160006101000a81548173ffffffffffffffffffffffffffffffffffffffff021916908373ffffffffffffffffffffffffffffffffffffffff160217905550602082015181600101556040820151816002019080519060200190610794929190611a34565b5060608201518160030190805190602001906107b1929190611a34565b50905050505050565b60056020528060005260406000206000915090508060000160009054906101000a900473ffffffffffffffffffffffffffffffffffffffff1690806001015490806002018054610809906122b3565b80601f0160208091040260200160405190810160405280929190818152602001828054610835906122b3565b80156108825780601f1061085757610100808354040283529160200191610882565b820191906000526020600020905b81548152906001019060200180831161086557829003601f168201915b505050505090806003018054610897906122b3565b80601f01602080910402602001604051908101604052809291908181526020018280546108c3906122b3565b80156109105780601f106108e557610100808354040283529160200191610910565b820191906000526020600020905b8154815290600101906020018083116108f357829003601f168201915b5050505050905084565b60025481565b60008111801561093257506007548111155b61093b57600080fd5b6003600481111561094f5761094e611fde565b5b6008600083815260200190815260200160002060080160009054906101000a900460ff16600481111561098557610984611fde565b5b1461098f57600080fd5b600860008281526020019081526020016000206003015434146109b157600080fd5b6000600660006008600085815260200190815260200160002060070154815260200190815260200160002060000160009054906101000a900473ffffffffffffffffffffffffffffffffffffffff1690508073ffffffffffffffffffffffffffffffffffffffff166108fc349081150290604051600060405180830381858888f19350505050158015610a48573d6000803e3d6000fd5b5060046008600084815260200190815260200160002060080160006101000a81548160ff02191690836004811115610a8357610a82611fde565b5b0217905550600a60003373ffffffffffffffffffffffffffffffffffffffff1673ffffffffffffffffffffffffffffffffffffffff1681526020019081526020016000208290806001815401808255809150506001900390600052602060002001600090919091909150555050565b600081118015610b0457506007548111155b610b0d57600080fd5b6000610b183361196e565b905060008111610b2757600080fd5b60026004811115610b3b57610b3a611fde565b5b6008600084815260200190815260200160002060080160009054906101000a900460ff166004811115610b7157610b70611fde565b5b14610b7b57600080fd5b80600860008481526020019081526020016000206007018190555060036008600084815260200190815260200160002060080160006101000a81548160ff02191690836004811115610bd057610bcf611fde565b5b0217905550600960008281526020019081526020016000208290806001815401808255809150506001900390600052602060002001600090919091909150555050565b60015481565b600081118015610c2b57506007548111155b610c3457600080fd5b6000610c3f336118a8565b905060008111610c4e57600080fd5b60016004811115610c6257610c61611fde565b5b6008600084815260200190815260200160002060080160009054906101000a900460ff166004811115610c9857610c97611fde565b5b14610ca257600080fd5b80600860008481526020019081526020016000206006018190555060026008600084815260200190815260200160002060080160006101000a81548160ff02191690836004811115610cf757610cf6611fde565b5b0217905550600960008281526020019081526020016000208290806001815401808255809150506001900390600052602060002001600090919091909150555050565b600a6020528160005260406000208181548110610d5657600080fd5b90600052602060002001600091509150505481565b6008602052806000526040600020600091509050806000015490806001018054610d94906122b3565b80601f0160208091040260200160405190810160405280929190818152602001828054610dc0906122b3565b8015610e0d5780601f10610de257610100808354040283529160200191610e0d565b820191906000526020600020905b815481529060010190602001808311610df057829003601f168201915b505050505090806002018054610e22906122b3565b80601f0160208091040260200160405190810160405280929190818152602001828054610e4e906122b3565b8015610e9b5780601f10610e7057610100808354040283529160200191610e9b565b820191906000526020600020905b815481529060010190602001808311610e7e57829003601f168201915b505050505090806003015490806004018054610eb6906122b3565b80601f0160208091040260200160405190810160405280929190818152602001828054610ee2906122b3565b8015610f2f5780601f10610f0457610100808354040283529160200191610f2f565b820191906000526020600020905b815481529060010190602001808311610f1257829003601f168201915b5050505050908060050154908060060154908060070154908060080160009054906101000a900460ff16905089565b60066020528060005260406000206000915090508060000160009054906101000a900473ffffffffffffffffffffffffffffffffffffffff1690806001015490806002018054610fad906122b3565b80601f0160208091040260200160405190810160405280929190818152602001828054610fd9906122b3565b80156110265780601f10610ffb57610100808354040283529160200191611026565b820191906000526020600020905b81548152906001019060200180831161100957829003601f168201915b50505050509080600301805461103b906122b3565b80601f0160208091040260200160405190810160405280929190818152602001828054611067906122b3565b80156110b45780601f10611089576101008083540402835291602001916110b4565b820191906000526020600020905b81548152906001019060200180831161109757829003601f168201915b5050505050905084565b600960205281600052604060002081815481106110da57600080fd5b90600052602060002001600091509150505481565b60008054906101000a900473ffffffffffffffffffffffffffffffffffffffff1673ffffffffffffffffffffffffffffffffffffffff163373ffffffffffffffffffffffffffffffffffffffff161461114757600080fd5b6001600081548092919061115a9061223c565b919050555060405180608001604052808473ffffffffffffffffffffffffffffffffffffffff16815260200160015481526020018381526020018281525060046000600154815260200190815260200160002060008201518160000160006101000a81548173ffffffffffffffffffffffffffffffffffffffff021916908373ffffffffffffffffffffffffffffffffffffffff16021790555060208201518160010155604082015181600201908051906020019061121a929190611a34565b506060820151816003019080519060200190611237929190611a34565b50905050505050565b60035481565b60008054906101000a900473ffffffffffffffffffffffffffffffffffffffff1673ffffffffffffffffffffffffffffffffffffffff163373ffffffffffffffffffffffffffffffffffffffff161461129e57600080fd5b600360008154809291906112b19061223c565b919050555060405180608001604052808473ffffffffffffffffffffffffffffffffffffffff16815260200160035481526020018381526020018281525060066000600354815260200190815260200160002060008201518160000160006101000a81548173ffffffffffffffffffffffffffffffffffffffff021916908373ffffffffffffffffffffffffffffffffffffffff160217905550602082015181600101556040820151816002019080519060200190611371929190611a34565b50606082015181600301908051906020019061138e929190611a34565b50905050505050565b6000811180156113a957506007548111155b6113b257600080fd5b60006113bd336117e2565b9050600081116113cc57600080fd5b600060048111156113e0576113df611fde565b5b6008600084815260200190815260200160002060080160009054906101000a900460ff16600481111561141657611415611fde565b5b1461142057600080fd5b80600860008481526020019081526020016000206005018190555060016008600084815260200190815260200160002060080160006101000a81548160ff0219169083600481111561147557611474611fde565b5b0217905550600960008281526020019081526020016000208290806001815401808255809150506001900390600052602060002001600090919091909150555050565b60075481565b60008054906101000a900473ffffffffffffffffffffffffffffffffffffffff1681565b60046020528060005260406000206000915090508060000160009054906101000a900473ffffffffffffffffffffffffffffffffffffffff1690806001015490806002018054611531906122b3565b80601f016020809104026020016040519081016040528092919081815260200182805461155d906122b3565b80156115aa5780601f1061157f576101008083540402835291602001916115aa565b820191906000526020600020905b81548152906001019060200180831161158d57829003601f168201915b5050505050908060030180546115bf906122b3565b80601f01602080910402602001604051908101604052809291908181526020018280546115eb906122b3565b80156116385780601f1061160d57610100808354040283529160200191611638565b820191906000526020600020905b81548152906001019060200180831161161b57829003601f168201915b5050505050905084565b60008054906101000a900473ffffffffffffffffffffffffffffffffffffffff1673ffffffffffffffffffffffffffffffffffffffff163373ffffffffffffffffffffffffffffffffffffffff161461169a57600080fd5b600760008154809291906116ad9061223c565b919050555060405180610120016040528060075481526020018581526020018481526020018381526020018281526020016000815260200160008152602001600081526020016000600481111561170757611706611fde565b5b815250600860006007548152602001908152602001600020600082015181600001556020820151816001019080519060200190611745929190611a34565b506040820151816002019080519060200190611762929190611a34565b50606082015181600301556080820151816004019080519060200190611789929190611a34565b5060a0820151816005015560c0820151816006015560e082015181600701556101008201518160080160006101000a81548160ff021916908360048111156117d4576117d3611fde565b5b021790555090505050505050565b600080600154116117f257600080fd5b6000600190505b600154811161189d578273ffffffffffffffffffffffffffffffffffffffff166004600083815260200190815260200160002060000160009054906101000a900473ffffffffffffffffffffffffffffffffffffffff1673ffffffffffffffffffffffffffffffffffffffff160361188a5760046000828152602001908152602001600020600101549150506118a3565b80806118959061223c565b9150506117f9565b50600090505b919050565b600080600254116118b857600080fd5b6000600190505b6002548111611963578273ffffffffffffffffffffffffffffffffffffffff166005600083815260200190815260200160002060000160009054906101000a900473ffffffffffffffffffffffffffffffffffffffff1673ffffffffffffffffffffffffffffffffffffffff1603611950576005600082815260200190815260200160002060010154915050611969565b808061195b9061223c565b9150506118bf565b50600090505b919050565b6000806003541161197e57600080fd5b6000600190505b6003548111611a29578273ffffffffffffffffffffffffffffffffffffffff166006600083815260200190815260200160002060000160009054906101000a900473ffffffffffffffffffffffffffffffffffffffff1673ffffffffffffffffffffffffffffffffffffffff1603611a16576006600082815260200190815260200160002060010154915050611a2f565b8080611a219061223c565b915050611985565b50600090505b919050565b828054611a40906122b3565b90600052602060002090601f016020900481019282611a625760008555611aa9565b82601f10611a7b57805160ff1916838001178555611aa9565b82800160010185558215611aa9579182015b82811115611aa8578251825591602001919060010190611a8d565b5b509050611ab69190611aba565b5090565b5b80821115611ad3576000816000905550600101611abb565b5090565b6000604051905090565b600080fd5b600080fd5b600073ffffffffffffffffffffffffffffffffffffffff82169050919050565b6000611b1682611aeb565b9050919050565b611b2681611b0b565b8114611b3157600080fd5b50565b600081359050611b4381611b1d565b92915050565b600060208284031215611b5f57611b5e611ae1565b5b6000611b6d84828501611b34565b91505092915050565b600081519050919050565b600082825260208201905092915050565b6000819050602082019050919050565b6000819050919050565b611bb581611ba2565b82525050565b6000611bc78383611bac565b60208301905092915050565b6000602082019050919050565b6000611beb82611b76565b611bf58185611b81565b9350611c0083611b92565b8060005b83811015611c31578151611c188882611bbb565b9750611c2383611bd3565b925050600181019050611c04565b5085935050505092915050565b60006020820190508181036000830152611c588184611be0565b905092915050565b600080fd5b600080fd5b6000601f19601f8301169050919050565b7f4e487b7100000000000000000000000000000000000000000000000000000000600052604160045260246000fd5b611cb382611c6a565b810181811067ffffffffffffffff82111715611cd257611cd1611c7b565b5b80604052505050565b6000611ce5611ad7565b9050611cf18282611caa565b919050565b600067ffffffffffffffff821115611d1157611d10611c7b565b5b611d1a82611c6a565b9050602081019050919050565b82818337600083830152505050565b6000611d49611d4484611cf6565b611cdb565b905082815260208101848484011115611d6557611d64611c65565b5b611d70848285611d27565b509392505050565b600082601f830112611d8d57611d8c611c60565b5b8135611d9d848260208601611d36565b91505092915050565b600080600060608486031215611dbf57611dbe611ae1565b5b6000611dcd86828701611b34565b935050602084013567ffffffffffffffff811115611dee57611ded611ae6565b5b611dfa86828701611d78565b925050604084013567ffffffffffffffff811115611e1b57611e1a611ae6565b5b611e2786828701611d78565b9150509250925092565b611e3a81611ba2565b8114611e4557600080fd5b50565b600081359050611e5781611e31565b92915050565b600060208284031215611e7357611e72611ae1565b5b6000611e8184828501611e48565b91505092915050565b611e9381611b0b565b82525050565b611ea281611ba2565b82525050565b600081519050919050565b600082825260208201905092915050565b60005b83811015611ee2578082015181840152602081019050611ec7565b83811115611ef1576000848401525b50505050565b6000611f0282611ea8565b611f0c8185611eb3565b9350611f1c818560208601611ec4565b611f2581611c6a565b840191505092915050565b6000608082019050611f456000830187611e8a565b611f526020830186611e99565b8181036040830152611f648185611ef7565b90508181036060830152611f788184611ef7565b905095945050505050565b6000602082019050611f986000830184611e99565b92915050565b60008060408385031215611fb557611fb4611ae1565b5b6000611fc385828601611b34565b9250506020611fd485828601611e48565b9150509250929050565b7f4e487b7100000000000000000000000000000000000000000000000000000000600052602160045260246000fd5b6005811061201e5761201d611fde565b5b50565b600081905061202f8261200d565b919050565b600061203f82612021565b9050919050565b61204f81612034565b82525050565b60006101208201905061206b600083018c611e99565b818103602083015261207d818b611ef7565b90508181036040830152612091818a611ef7565b90506120a06060830189611e99565b81810360808301526120b28188611ef7565b90506120c160a0830187611e99565b6120ce60c0830186611e99565b6120db60e0830185611e99565b6120e9610100830184612046565b9a9950505050505050505050565b6000806040838503121561210e5761210d611ae1565b5b600061211c85828601611e48565b925050602061212d85828601611e48565b9150509250929050565b600060208201905061214c6000830184611e8a565b92915050565b6000806000806080858703121561216c5761216b611ae1565b5b600085013567ffffffffffffffff81111561218a57612189611ae6565b5b61219687828801611d78565b945050602085013567ffffffffffffffff8111156121b7576121b6611ae6565b5b6121c387828801611d78565b93505060406121d487828801611e48565b925050606085013567ffffffffffffffff8111156121f5576121f4611ae6565b5b61220187828801611d78565b91505092959194509250565b7f4e487b7100000000000000000000000000000000000000000000000000000000600052601160045260246000fd5b600061224782611ba2565b91507fffffffffffffffffffffffffffffffffffffffffffffffffffffffffffffffff82036122795761227861220d565b5b600182019050919050565b7f4e487b7100000000000000000000000000000000000000000000000000000000600052602260045260246000fd5b600060028204905060018216806122cb57607f821691505b6020821081036122de576122dd612284565b5b5091905056fea2646970667358221220302d31c3159971241c91d5e34e150a8ad4fa49d09fff55ec6c421c962533538264736f6c634300080d0033",
  "immutableReferences": {},
  "source": "// SPDX-License-Identifier: MIT\npragma solidity >=0.4.22 <0.9.0;\n\nimport \"./ProductManagement.sol\";\n\ncontract TransactionManagement is ProductManagement {\n    \n    //To manufacture product\n    function Manufacturing(uint256 _productID) public {\n        require(_productID > 0 && _productID <= productCtr);\n        uint256 _id = findMAN(msg.sender);\n        require(_id > 0);\n        require(ProductStock[_productID].stage == STAGE.Init);\n        ProductStock[_productID].MANid = _id;\n        ProductStock[_productID].stage = STAGE.Manufacture;\n        Products[_id].push(_productID);\n    }\n\n    //To check if Manufacturer is available in the blockchain\n    function findMAN(address _address) private view returns (uint256) {\n        require(manCtr > 0);\n        for (uint256 i = 1; i <= manCtr; i++) {\n            if (MAN[i].addr == _address) return MAN[i].id;\n        }\n        return 0;\n    }\n\n    //To supply products from Manufacturer to distributor\n    function Distribute(uint256 _productID) public {\n        require(_productID > 0 && _productID <= productCtr);\n        uint256 _id = findDIS(msg.sender);\n        require(_id > 0);\n        require(ProductStock[_productID].stage == STAGE.Manufacture);\n        ProductStock[_productID].DISid = _id;\n        ProductStock[_productID].stage = STAGE.Distribution;\n        Products[_id].push(_productID);\n\n    }\n\n    //To check if distributor is available in the blockchain\n    function findDIS(address _address) private view returns (uint256) {\n        require(disCtr > 0);\n        for (uint256 i = 1; i <= disCtr; i++) {\n            if (DIS[i].addr == _address) return DIS[i].id;\n        }\n        return 0;\n    }\n\n    //To supply products from distributor to retailer\n    function Retail(uint256 _productID) public {\n        require(_productID > 0 && _productID <= productCtr);\n        uint256 _id = findRET(msg.sender);\n        require(_id > 0);\n        require(ProductStock[_productID].stage == STAGE.Distribution);\n        ProductStock[_productID].RETid = _id;\n        ProductStock[_productID].stage = STAGE.Retail;\n        Products[_id].push(_productID);\n\n    }\n\n    //To check if retailer is available in the blockchain\n    function findRET(address _address) private view returns (uint256) {\n        require(retCtr > 0);\n        for (uint256 i = 1; i <= retCtr; i++) {\n            if (RET[i].addr == _address) return RET[i].id;\n        }\n        return 0;\n    }\n\n    // Function to find products by user's address\n    function findProductsByAddress(address userAddress) public view returns (uint256[] memory) {\n\n        uint256[] memory productIds;\n        uint256 id = findMAN(userAddress);\n        if (id != 0) {\n            productIds = Products[id];\n        }\n\n        id = findDIS(userAddress);\n        if (id != 0) {\n            productIds = Products[id];\n        }\n\n        id = findRET(userAddress);\n        if (id != 0) {\n            productIds = Products[id];\n        }\n\n        // Return an empty array if the user is not found in any role\n        return productIds ;\n    }\n\n    mapping(address => uint[]) public purchases;\n\n    function purchaseProduct(uint256 _productID) public payable {\n        require(_productID > 0 && _productID <= productCtr);\n        require(ProductStock[_productID].stage == STAGE.Retail);\n        require(msg.value == ProductStock[_productID].price);\n\n        // Transfer the payment to the retailer\n        address payable retailerAddress = payable(RET[ProductStock[_productID].RETid].addr);\n        retailerAddress.transfer(msg.value);\n\n        // Update product stage to sold\n        ProductStock[_productID].stage = STAGE.Sold;\n        purchases[msg.sender].push(_productID);\n    }\n\n}\n",
  "sourcePath": "C:\\Users\\saraj\\OneDrive\\Desktop\\supplyrbo\\contracts\\TransactionManagement.sol",
  "compiler": {
    "name": "solc",
    "version": "0.8.13+commit.abaa5c0e.Emscripten.clang"
  },
  "schemaVersion": "3.4.16",
  "updatedAt": "2024-05-16T17:36:58.944Z",
  "networkType": "ethereum",
  "devdoc": {
    "kind": "dev",
    "methods": {},
    "version": 1
  },
  "userdoc": {
    "kind": "user",
    "methods": {},
    "version": 1
  }
}