{
  "contractName": "TransactionManagement",
  "abi": [
    {
      "inputs": [
        {
          "internalType": "uint256",
          "name": "",
          "type": "uint256"
        }
      ],
      "name": "DIS",
      "outputs": [
        {
          "internalType": "address",
          "name": "addr",
          "type": "address"
        },
        {
          "internalType": "uint256",
          "name": "id",
          "type": "uint256"
        },
        {
          "internalType": "string",
          "name": "name",
          "type": "string"
        },
        {
          "internalType": "string",
          "name": "place",
          "type": "string"
        }
      ],
      "stateMutability": "view",
      "type": "function",
      "constant": true
    },
    {
      "inputs": [
        {
          "internalType": "uint256",
          "name": "",
          "type": "uint256"
        }
      ],
      "name": "MAN",
      "outputs": [
        {
          "internalType": "address",
          "name": "addr",
          "type": "address"
        },
        {
          "internalType": "uint256",
          "name": "id",
          "type": "uint256"
        },
        {
          "internalType": "string",
          "name": "name",
          "type": "string"
        },
        {
          "internalType": "string",
          "name": "place",
          "type": "string"
        }
      ],
      "stateMutability": "view",
      "type": "function",
      "constant": true
    },
    {
      "inputs": [],
      "name": "Owner",
      "outputs": [
        {
          "internalType": "address",
          "name": "",
          "type": "address"
        }
      ],
      "stateMutability": "view",
      "type": "function",
      "constant": true
    },
    {
      "inputs": [
        {
          "internalType": "uint256",
          "name": "",
          "type": "uint256"
        }
      ],
      "name": "ProductStock",
      "outputs": [
        {
          "internalType": "uint256",
          "name": "id",
          "type": "uint256"
        },
        {
          "internalType": "string",
          "name": "name",
          "type": "string"
        },
        {
          "internalType": "string",
          "name": "description",
          "type": "string"
        },
        {
          "internalType": "uint256",
          "name": "price",
          "type": "uint256"
        },
        {
          "internalType": "string",
          "name": "imageHash",
          "type": "string"
        },
        {
          "internalType": "uint256",
          "name": "MANid",
          "type": "uint256"
        },
        {
          "internalType": "uint256",
          "name": "DISid",
          "type": "uint256"
        },
        {
          "internalType": "uint256",
          "name": "RETid",
          "type": "uint256"
        },
        {
          "internalType": "enum ProductManagement.STAGE",
          "name": "stage",
          "type": "uint8"
        }
      ],
      "stateMutability": "view",
      "type": "function",
      "constant": true
    },
    {
      "inputs": [
        {
          "internalType": "uint256",
          "name": "",
          "type": "uint256"
        }
      ],
      "name": "RET",
      "outputs": [
        {
          "internalType": "address",
          "name": "addr",
          "type": "address"
        },
        {
          "internalType": "uint256",
          "name": "id",
          "type": "uint256"
        },
        {
          "internalType": "string",
          "name": "name",
          "type": "string"
        },
        {
          "internalType": "string",
          "name": "place",
          "type": "string"
        }
      ],
      "stateMutability": "view",
      "type": "function",
      "constant": true
    },
    {
      "inputs": [
        {
          "internalType": "address",
          "name": "_address",
          "type": "address"
        },
        {
          "internalType": "string",
          "name": "_name",
          "type": "string"
        },
        {
          "internalType": "string",
          "name": "_place",
          "type": "string"
        }
      ],
      "name": "addDistributor",
      "outputs": [],
      "stateMutability": "nonpayable",
      "type": "function"
    },
    {
      "inputs": [
        {
          "internalType": "address",
          "name": "_address",
          "type": "address"
        },
        {
          "internalType": "string",
          "name": "_name",
          "type": "string"
        },
        {
          "internalType": "string",
          "name": "_place",
          "type": "string"
        }
      ],
      "name": "addManufacturer",
      "outputs": [],
      "stateMutability": "nonpayable",
      "type": "function"
    },
    {
      "inputs": [
        {
          "internalType": "string",
          "name": "_name",
          "type": "string"
        },
        {
          "internalType": "string",
          "name": "_description",
          "type": "string"
        },
        {
          "internalType": "uint256",
          "name": "_price",
          "type": "uint256"
        },
        {
          "internalType": "string",
          "name": "_imageHash",
          "type": "string"
        }
      ],
      "name": "addProduct",
      "outputs": [],
      "stateMutability": "nonpayable",
      "type": "function"
    },
    {
      "inputs": [
        {
          "internalType": "address",
          "name": "_address",
          "type": "address"
        },
        {
          "internalType": "string",
          "name": "_name",
          "type": "string"
        },
        {
          "internalType": "string",
          "name": "_place",
          "type": "string"
        }
      ],
      "name": "addRetailer",
      "outputs": [],
      "stateMutability": "nonpayable",
      "type": "function"
    },
    {
      "inputs": [],
      "name": "disCtr",
      "outputs": [
        {
          "internalType": "uint256",
          "name": "",
          "type": "uint256"
        }
      ],
      "stateMutability": "view",
      "type": "function",
      "constant": true
    },
    {
      "inputs": [],
      "name": "manCtr",
      "outputs": [
        {
          "internalType": "uint256",
          "name": "",
          "type": "uint256"
        }
      ],
      "stateMutability": "view",
      "type": "function",
      "constant": true
    },
    {
      "inputs": [],
      "name": "productCtr",
      "outputs": [
        {
          "internalType": "uint256",
          "name": "",
          "type": "uint256"
        }
      ],
      "stateMutability": "view",
      "type": "function",
      "constant": true
    },
    {
      "inputs": [
        {
          "internalType": "address",
          "name": "",
          "type": "address"
        },
        {
          "internalType": "uint256",
          "name": "",
          "type": "uint256"
        }
      ],
      "name": "purchases",
      "outputs": [
        {
          "internalType": "uint256",
          "name": "",
          "type": "uint256"
        }
      ],
      "stateMutability": "view",
      "type": "function",
      "constant": true
    },
    {
      "inputs": [],
      "name": "retCtr",
      "outputs": [
        {
          "internalType": "uint256",
          "name": "",
          "type": "uint256"
        }
      ],
      "stateMutability": "view",
      "type": "function",
      "constant": true
    },
    {
      "inputs": [
        {
          "internalType": "uint256",
          "name": "_productID",
          "type": "uint256"
        }
      ],
      "name": "Manufacturing",
      "outputs": [],
      "stateMutability": "nonpayable",
      "type": "function"
    },
    {
      "inputs": [
        {
          "internalType": "uint256",
          "name": "_productID",
          "type": "uint256"
        }
      ],
      "name": "Distribute",
      "outputs": [],
      "stateMutability": "nonpayable",
      "type": "function"
    },
    {
      "inputs": [
        {
          "internalType": "uint256",
          "name": "_productID",
          "type": "uint256"
        }
      ],
      "name": "Retail",
      "outputs": [],
      "stateMutability": "nonpayable",
      "type": "function"
    },
    {
      "inputs": [
        {
          "internalType": "uint256",
          "name": "_productID",
          "type": "uint256"
        }
      ],
      "name": "purchaseProduct",
      "outputs": [],
      "stateMutability": "payable",
      "type": "function",
      "payable": true
    }
  ],
  "bytecode": "0x608060405234801561001057600080fd5b50336000806101000a81548173ffffffffffffffffffffffffffffffffffffffff021916908373ffffffffffffffffffffffffffffffffffffffff160217905550611ee7806100606000396000f3fe6080604052600436106101095760003560e01c806359bf286f11610095578063a48d335a11610064578063a48d335a1461037a578063aaea34aa146103a3578063b4a99a4e146103ce578063cc403069146103f9578063f800d3321461043957610109565b806359bf286f146102bd5780636a992c9f146102fd5780637e43d94d14610326578063857ddb041461035157610109565b80633d753a1c116100dc5780633d753a1c146101be578063438e9c4d146101e75780634def474a1461021257806352d3f8491461023b5780635573d8b21461027857610109565b80632a4af4401461010e5780632b0187ac146101375780632bdb2e6b1461017757806338e76a03146101a2575b600080fd5b34801561011a57600080fd5b50610135600480360381019061013091906119a9565b610462565b005b34801561014357600080fd5b5061015e60048036038101906101599190611a6a565b6105b3565b60405161016e9493929190611b3d565b60405180910390f35b34801561018357600080fd5b5061018c610713565b6040516101999190611b90565b60405180910390f35b6101bc60048036038101906101b79190611a6a565b610719565b005b3480156101ca57600080fd5b506101e560048036038101906101e09190611a6a565b6108eb565b005b3480156101f357600080fd5b506101fc6109d2565b6040516102099190611b90565b60405180910390f35b34801561021e57600080fd5b5061023960048036038101906102349190611a6a565b6109d8565b005b34801561024757600080fd5b50610262600480360381019061025d9190611bab565b610abf565b60405161026f9190611b90565b60405180910390f35b34801561028457600080fd5b5061029f600480360381019061029a9190611a6a565b610af0565b6040516102b499989796959493929190611c62565b60405180910390f35b3480156102c957600080fd5b506102e460048036038101906102df9190611a6a565b610ce3565b6040516102f49493929190611b3d565b60405180910390f35b34801561030957600080fd5b50610324600480360381019061031f91906119a9565b610e43565b005b34801561033257600080fd5b5061033b610f94565b6040516103489190611b90565b60405180910390f35b34801561035d57600080fd5b50610378600480360381019061037391906119a9565b610f9a565b005b34801561038657600080fd5b506103a1600480360381019061039c9190611a6a565b6110eb565b005b3480156103af57600080fd5b506103b86111d2565b6040516103c59190611b90565b60405180910390f35b3480156103da57600080fd5b506103e36111d8565b6040516103f09190611d04565b60405180910390f35b34801561040557600080fd5b50610420600480360381019061041b9190611a6a565b6111fc565b6040516104309493929190611b3d565b60405180910390f35b34801561044557600080fd5b50610460600480360381019061045b9190611d1f565b61135c565b005b60008054906101000a900473ffffffffffffffffffffffffffffffffffffffff1673ffffffffffffffffffffffffffffffffffffffff163373ffffffffffffffffffffffffffffffffffffffff16146104ba57600080fd5b600260008154809291906104cd90611e09565b919050555060405180608001604052808473ffffffffffffffffffffffffffffffffffffffff16815260200160025481526020018381526020018281525060056000600254815260200190815260200160002060008201518160000160006101000a81548173ffffffffffffffffffffffffffffffffffffffff021916908373ffffffffffffffffffffffffffffffffffffffff16021790555060208201518160010155604082015181600201908051906020019061058d92919061174e565b5060608201518160030190805190602001906105aa92919061174e565b50905050505050565b60056020528060005260406000206000915090508060000160009054906101000a900473ffffffffffffffffffffffffffffffffffffffff169080600101549080600201805461060290611e80565b80601f016020809104026020016040519081016040528092919081815260200182805461062e90611e80565b801561067b5780601f106106505761010080835404028352916020019161067b565b820191906000526020600020905b81548152906001019060200180831161065e57829003601f168201915b50505050509080600301805461069090611e80565b80601f01602080910402602001604051908101604052809291908181526020018280546106bc90611e80565b80156107095780601f106106de57610100808354040283529160200191610709565b820191906000526020600020905b8154815290600101906020018083116106ec57829003601f168201915b5050505050905084565b60025481565b60008111801561072b57506007548111155b61073457600080fd5b6003600481111561074857610747611beb565b5b6008600083815260200190815260200160002060080160009054906101000a900460ff16600481111561077e5761077d611beb565b5b1461078857600080fd5b600860008281526020019081526020016000206003015434146107aa57600080fd5b6000600660006008600085815260200190815260200160002060070154815260200190815260200160002060000160009054906101000a900473ffffffffffffffffffffffffffffffffffffffff1690508073ffffffffffffffffffffffffffffffffffffffff166108fc349081150290604051600060405180830381858888f19350505050158015610841573d6000803e3d6000fd5b5060046008600084815260200190815260200160002060080160006101000a81548160ff0219169083600481111561087c5761087b611beb565b5b0217905550600960003373ffffffffffffffffffffffffffffffffffffffff1673ffffffffffffffffffffffffffffffffffffffff1681526020019081526020016000208290806001815401808255809150506001900390600052602060002001600090919091909150555050565b6000811180156108fd57506007548111155b61090657600080fd5b6000610911336114fc565b90506000811161092057600080fd5b6002600481111561093457610933611beb565b5b6008600084815260200190815260200160002060080160009054906101000a900460ff16600481111561096a57610969611beb565b5b1461097457600080fd5b80600860008481526020019081526020016000206007018190555060036008600084815260200190815260200160002060080160006101000a81548160ff021916908360048111156109c9576109c8611beb565b5b02179055505050565b60015481565b6000811180156109ea57506007548111155b6109f357600080fd5b60006109fe336115c2565b905060008111610a0d57600080fd5b60016004811115610a2157610a20611beb565b5b6008600084815260200190815260200160002060080160009054906101000a900460ff166004811115610a5757610a56611beb565b5b14610a6157600080fd5b80600860008481526020019081526020016000206006018190555060026008600084815260200190815260200160002060080160006101000a81548160ff02191690836004811115610ab657610ab5611beb565b5b02179055505050565b60096020528160005260406000208181548110610adb57600080fd5b90600052602060002001600091509150505481565b6008602052806000526040600020600091509050806000015490806001018054610b1990611e80565b80601f0160208091040260200160405190810160405280929190818152602001828054610b4590611e80565b8015610b925780601f10610b6757610100808354040283529160200191610b92565b820191906000526020600020905b815481529060010190602001808311610b7557829003601f168201915b505050505090806002018054610ba790611e80565b80601f0160208091040260200160405190810160405280929190818152602001828054610bd390611e80565b8015610c205780601f10610bf557610100808354040283529160200191610c20565b820191906000526020600020905b815481529060010190602001808311610c0357829003601f168201915b505050505090806003015490806004018054610c3b90611e80565b80601f0160208091040260200160405190810160405280929190818152602001828054610c6790611e80565b8015610cb45780601f10610c8957610100808354040283529160200191610cb4565b820191906000526020600020905b815481529060010190602001808311610c9757829003601f168201915b5050505050908060050154908060060154908060070154908060080160009054906101000a900460ff16905089565b60066020528060005260406000206000915090508060000160009054906101000a900473ffffffffffffffffffffffffffffffffffffffff1690806001015490806002018054610d3290611e80565b80601f0160208091040260200160405190810160405280929190818152602001828054610d5e90611e80565b8015610dab5780601f10610d8057610100808354040283529160200191610dab565b820191906000526020600020905b815481529060010190602001808311610d8e57829003601f168201915b505050505090806003018054610dc090611e80565b80601f0160208091040260200160405190810160405280929190818152602001828054610dec90611e80565b8015610e395780601f10610e0e57610100808354040283529160200191610e39565b820191906000526020600020905b815481529060010190602001808311610e1c57829003601f168201915b5050505050905084565b60008054906101000a900473ffffffffffffffffffffffffffffffffffffffff1673ffffffffffffffffffffffffffffffffffffffff163373ffffffffffffffffffffffffffffffffffffffff1614610e9b57600080fd5b60016000815480929190610eae90611e09565b919050555060405180608001604052808473ffffffffffffffffffffffffffffffffffffffff16815260200160015481526020018381526020018281525060046000600154815260200190815260200160002060008201518160000160006101000a81548173ffffffffffffffffffffffffffffffffffffffff021916908373ffffffffffffffffffffffffffffffffffffffff160217905550602082015181600101556040820151816002019080519060200190610f6e92919061174e565b506060820151816003019080519060200190610f8b92919061174e565b50905050505050565b60035481565b60008054906101000a900473ffffffffffffffffffffffffffffffffffffffff1673ffffffffffffffffffffffffffffffffffffffff163373ffffffffffffffffffffffffffffffffffffffff1614610ff257600080fd5b6003600081548092919061100590611e09565b919050555060405180608001604052808473ffffffffffffffffffffffffffffffffffffffff16815260200160035481526020018381526020018281525060066000600354815260200190815260200160002060008201518160000160006101000a81548173ffffffffffffffffffffffffffffffffffffffff021916908373ffffffffffffffffffffffffffffffffffffffff1602179055506020820151816001015560408201518160020190805190602001906110c592919061174e565b5060608201518160030190805190602001906110e292919061174e565b50905050505050565b6000811180156110fd57506007548111155b61110657600080fd5b600061111133611688565b90506000811161112057600080fd5b6000600481111561113457611133611beb565b5b6008600084815260200190815260200160002060080160009054906101000a900460ff16600481111561116a57611169611beb565b5b1461117457600080fd5b80600860008481526020019081526020016000206005018190555060016008600084815260200190815260200160002060080160006101000a81548160ff021916908360048111156111c9576111c8611beb565b5b02179055505050565b60075481565b60008054906101000a900473ffffffffffffffffffffffffffffffffffffffff1681565b60046020528060005260406000206000915090508060000160009054906101000a900473ffffffffffffffffffffffffffffffffffffffff169080600101549080600201805461124b90611e80565b80601f016020809104026020016040519081016040528092919081815260200182805461127790611e80565b80156112c45780601f10611299576101008083540402835291602001916112c4565b820191906000526020600020905b8154815290600101906020018083116112a757829003601f168201915b5050505050908060030180546112d990611e80565b80601f016020809104026020016040519081016040528092919081815260200182805461130590611e80565b80156113525780601f1061132757610100808354040283529160200191611352565b820191906000526020600020905b81548152906001019060200180831161133557829003601f168201915b5050505050905084565b60008054906101000a900473ffffffffffffffffffffffffffffffffffffffff1673ffffffffffffffffffffffffffffffffffffffff163373ffffffffffffffffffffffffffffffffffffffff16146113b457600080fd5b600760008154809291906113c790611e09565b919050555060405180610120016040528060075481526020018581526020018481526020018381526020018281526020016000815260200160008152602001600081526020016000600481111561142157611420611beb565b5b81525060086000600754815260200190815260200160002060008201518160000155602082015181600101908051906020019061145f92919061174e565b50604082015181600201908051906020019061147c92919061174e565b506060820151816003015560808201518160040190805190602001906114a392919061174e565b5060a0820151816005015560c0820151816006015560e082015181600701556101008201518160080160006101000a81548160ff021916908360048111156114ee576114ed611beb565b5b021790555090505050505050565b6000806003541161150c57600080fd5b6000600190505b60035481116115b7578273ffffffffffffffffffffffffffffffffffffffff166006600083815260200190815260200160002060000160009054906101000a900473ffffffffffffffffffffffffffffffffffffffff1673ffffffffffffffffffffffffffffffffffffffff16036115a45760066000828152602001908152602001600020600101549150506115bd565b80806115af90611e09565b915050611513565b50600090505b919050565b600080600254116115d257600080fd5b6000600190505b600254811161167d578273ffffffffffffffffffffffffffffffffffffffff166005600083815260200190815260200160002060000160009054906101000a900473ffffffffffffffffffffffffffffffffffffffff1673ffffffffffffffffffffffffffffffffffffffff160361166a576005600082815260200190815260200160002060010154915050611683565b808061167590611e09565b9150506115d9565b50600090505b919050565b6000806001541161169857600080fd5b6000600190505b6001548111611743578273ffffffffffffffffffffffffffffffffffffffff166004600083815260200190815260200160002060000160009054906101000a900473ffffffffffffffffffffffffffffffffffffffff1673ffffffffffffffffffffffffffffffffffffffff1603611730576004600082815260200190815260200160002060010154915050611749565b808061173b90611e09565b91505061169f565b50600090505b919050565b82805461175a90611e80565b90600052602060002090601f01602090048101928261177c57600085556117c3565b82601f1061179557805160ff19168380011785556117c3565b828001600101855582156117c3579182015b828111156117c25782518255916020019190600101906117a7565b5b5090506117d091906117d4565b5090565b5b808211156117ed5760008160009055506001016117d5565b5090565b6000604051905090565b600080fd5b600080fd5b600073ffffffffffffffffffffffffffffffffffffffff82169050919050565b600061183082611805565b9050919050565b61184081611825565b811461184b57600080fd5b50565b60008135905061185d81611837565b92915050565b600080fd5b600080fd5b6000601f19601f8301169050919050565b7f4e487b7100000000000000000000000000000000000000000000000000000000600052604160045260246000fd5b6118b68261186d565b810181811067ffffffffffffffff821117156118d5576118d461187e565b5b80604052505050565b60006118e86117f1565b90506118f482826118ad565b919050565b600067ffffffffffffffff8211156119145761191361187e565b5b61191d8261186d565b9050602081019050919050565b82818337600083830152505050565b600061194c611947846118f9565b6118de565b90508281526020810184848401111561196857611967611868565b5b61197384828561192a565b509392505050565b600082601f8301126119905761198f611863565b5b81356119a0848260208601611939565b91505092915050565b6000806000606084860312156119c2576119c16117fb565b5b60006119d08682870161184e565b935050602084013567ffffffffffffffff8111156119f1576119f0611800565b5b6119fd8682870161197b565b925050604084013567ffffffffffffffff811115611a1e57611a1d611800565b5b611a2a8682870161197b565b9150509250925092565b6000819050919050565b611a4781611a34565b8114611a5257600080fd5b50565b600081359050611a6481611a3e565b92915050565b600060208284031215611a8057611a7f6117fb565b5b6000611a8e84828501611a55565b91505092915050565b611aa081611825565b82525050565b611aaf81611a34565b82525050565b600081519050919050565b600082825260208201905092915050565b60005b83811015611aef578082015181840152602081019050611ad4565b83811115611afe576000848401525b50505050565b6000611b0f82611ab5565b611b198185611ac0565b9350611b29818560208601611ad1565b611b328161186d565b840191505092915050565b6000608082019050611b526000830187611a97565b611b5f6020830186611aa6565b8181036040830152611b718185611b04565b90508181036060830152611b858184611b04565b905095945050505050565b6000602082019050611ba56000830184611aa6565b92915050565b60008060408385031215611bc257611bc16117fb565b5b6000611bd08582860161184e565b9250506020611be185828601611a55565b9150509250929050565b7f4e487b7100000000000000000000000000000000000000000000000000000000600052602160045260246000fd5b60058110611c2b57611c2a611beb565b5b50565b6000819050611c3c82611c1a565b919050565b6000611c4c82611c2e565b9050919050565b611c5c81611c41565b82525050565b600061012082019050611c78600083018c611aa6565b8181036020830152611c8a818b611b04565b90508181036040830152611c9e818a611b04565b9050611cad6060830189611aa6565b8181036080830152611cbf8188611b04565b9050611cce60a0830187611aa6565b611cdb60c0830186611aa6565b611ce860e0830185611aa6565b611cf6610100830184611c53565b9a9950505050505050505050565b6000602082019050611d196000830184611a97565b92915050565b60008060008060808587031215611d3957611d386117fb565b5b600085013567ffffffffffffffff811115611d5757611d56611800565b5b611d638782880161197b565b945050602085013567ffffffffffffffff811115611d8457611d83611800565b5b611d908782880161197b565b9350506040611da187828801611a55565b925050606085013567ffffffffffffffff811115611dc257611dc1611800565b5b611dce8782880161197b565b91505092959194509250565b7f4e487b7100000000000000000000000000000000000000000000000000000000600052601160045260246000fd5b6000611e1482611a34565b91507fffffffffffffffffffffffffffffffffffffffffffffffffffffffffffffffff8203611e4657611e45611dda565b5b600182019050919050565b7f4e487b7100000000000000000000000000000000000000000000000000000000600052602260045260246000fd5b60006002820490506001821680611e9857607f821691505b602082108103611eab57611eaa611e51565b5b5091905056fea264697066735822122042d6ca3b7574c9d665772920ed12cf4b154c405ebcf138cdcb5efdac7f766fd864736f6c634300080d0033",
  "immutableReferences": {},
  "source": "// SPDX-License-Identifier: MIT\npragma solidity >=0.4.22 <0.9.0;\n\nimport \"./ProductManagement.sol\";\n\ncontract TransactionManagement is ProductManagement {\n    \n    //To manufacture product\n    function Manufacturing(uint256 _productID) public {\n        require(_productID > 0 && _productID <= productCtr);\n        uint256 _id = findMAN(msg.sender);\n        require(_id > 0);\n        require(ProductStock[_productID].stage == STAGE.Init);\n        ProductStock[_productID].MANid = _id;\n        ProductStock[_productID].stage = STAGE.Manufacture;\n    }\n\n    //To check if Manufacturer is available in the blockchain\n    function findMAN(address _address) private view returns (uint256) {\n        require(manCtr > 0);\n        for (uint256 i = 1; i <= manCtr; i++) {\n            if (MAN[i].addr == _address) return MAN[i].id;\n        }\n        return 0;\n    }\n\n    //To supply products from Manufacturer to distributor\n    function Distribute(uint256 _productID) public {\n        require(_productID > 0 && _productID <= productCtr);\n        uint256 _id = findDIS(msg.sender);\n        require(_id > 0);\n        require(ProductStock[_productID].stage == STAGE.Manufacture);\n        ProductStock[_productID].DISid = _id;\n        ProductStock[_productID].stage = STAGE.Distribution;\n    }\n\n    //To check if distributor is available in the blockchain\n    function findDIS(address _address) private view returns (uint256) {\n        require(disCtr > 0);\n        for (uint256 i = 1; i <= disCtr; i++) {\n            if (DIS[i].addr == _address) return DIS[i].id;\n        }\n        return 0;\n    }\n\n    //To supply products from distributor to retailer\n    function Retail(uint256 _productID) public {\n        require(_productID > 0 && _productID <= productCtr);\n        uint256 _id = findRET(msg.sender);\n        require(_id > 0);\n        require(ProductStock[_productID].stage == STAGE.Distribution);\n        ProductStock[_productID].RETid = _id;\n        ProductStock[_productID].stage = STAGE.Retail;\n    }\n\n    //To check if retailer is available in the blockchain\n    function findRET(address _address) private view returns (uint256) {\n        require(retCtr > 0);\n        for (uint256 i = 1; i <= retCtr; i++) {\n            if (RET[i].addr == _address) return RET[i].id;\n        }\n        return 0;\n    }\n\n    mapping(address => uint[]) public purchases;\n\n    function purchaseProduct(uint256 _productID) public payable {\n        require(_productID > 0 && _productID <= productCtr);\n        require(ProductStock[_productID].stage == STAGE.Retail);\n        require(msg.value == ProductStock[_productID].price);\n\n        // Transfer the payment to the retailer\n        address payable retailerAddress = payable(RET[ProductStock[_productID].RETid].addr);\n        retailerAddress.transfer(msg.value);\n\n        // Update product stage to sold\n        ProductStock[_productID].stage = STAGE.Sold;\n        purchases[msg.sender].push(_productID);\n    }\n\n}\n",
  "sourcePath": "C:\\Users\\saraj\\OneDrive\\Desktop\\supplyrbo\\contracts\\TransactionManagement.sol",
  "compiler": {
    "name": "solc",
    "version": "0.8.13+commit.abaa5c0e.Emscripten.clang"
  },
  "schemaVersion": "3.4.16",
  "updatedAt": "2024-05-08T15:18:57.951Z",
  "networkType": "ethereum",
  "devdoc": {
    "kind": "dev",
    "methods": {},
    "version": 1
  },
  "userdoc": {
    "kind": "user",
    "methods": {},
    "version": 1
  }
}